{
	"FundMe/FundMe.sol": {
		"FundMe": {
			"abi": [
				{
					"inputs": [],
					"stateMutability": "nonpayable",
					"type": "constructor"
				},
				{
					"inputs": [
						{
							"internalType": "address",
							"name": "funder",
							"type": "address"
						}
					],
					"name": "addressToAmountFunded",
					"outputs": [
						{
							"internalType": "uint256",
							"name": "amountFunded",
							"type": "uint256"
						}
					],
					"stateMutability": "view",
					"type": "function"
				},
				{
					"inputs": [],
					"name": "fund",
					"outputs": [],
					"stateMutability": "payable",
					"type": "function"
				},
				{
					"inputs": [
						{
							"internalType": "uint256",
							"name": "",
							"type": "uint256"
						}
					],
					"name": "funders",
					"outputs": [
						{
							"internalType": "address",
							"name": "",
							"type": "address"
						}
					],
					"stateMutability": "view",
					"type": "function"
				},
				{
					"inputs": [],
					"name": "miniUSD",
					"outputs": [
						{
							"internalType": "uint256",
							"name": "",
							"type": "uint256"
						}
					],
					"stateMutability": "view",
					"type": "function"
				},
				{
					"inputs": [],
					"name": "owner",
					"outputs": [
						{
							"internalType": "address",
							"name": "",
							"type": "address"
						}
					],
					"stateMutability": "view",
					"type": "function"
				},
				{
					"inputs": [],
					"name": "withdraw",
					"outputs": [],
					"stateMutability": "nonpayable",
					"type": "function"
				}
			],
			"devdoc": {
				"kind": "dev",
				"methods": {},
				"version": 1
			},
			"evm": {
				"assembly": "    /* \"FundMe/FundMe.sol\":199:5127  contract FundMe {... */\n  mstore(0x40, 0x80)\n    /* \"FundMe/FundMe.sol\":453:457  5e18 */\n  0x4563918244f40000\n    /* \"FundMe/FundMe.sol\":428:457  uint256 public miniUSD = 5e18 */\n  0x00\n  sstore\n    /* \"FundMe/FundMe.sol\":732:783  constructor() {... */\n  callvalue\n  dup1\n  iszero\n  tag_1\n  jumpi\n  revert(0x00, 0x00)\ntag_1:\n  pop\n    /* \"FundMe/FundMe.sol\":765:775  msg.sender */\n  caller\n    /* \"FundMe/FundMe.sol\":757:762  owner */\n  0x03\n  0x00\n    /* \"FundMe/FundMe.sol\":757:775  owner = msg.sender */\n  0x0100\n  exp\n  dup2\n  sload\n  dup2\n  0xffffffffffffffffffffffffffffffffffffffff\n  mul\n  not\n  and\n  swap1\n  dup4\n  0xffffffffffffffffffffffffffffffffffffffff\n  and\n  mul\n  or\n  swap1\n  sstore\n  pop\n    /* \"FundMe/FundMe.sol\":199:5127  contract FundMe {... */\n  dataSize(sub_0)\n  dup1\n  dataOffset(sub_0)\n  0x00\n  codecopy\n  0x00\n  return\nstop\n\nsub_0: assembly {\n        /* \"FundMe/FundMe.sol\":199:5127  contract FundMe {... */\n      mstore(0x40, 0x80)\n      jumpi(tag_1, lt(calldatasize, 0x04))\n      shr(0xe0, calldataload(0x00))\n      dup1\n      0x3ccfd60b\n      eq\n      tag_2\n      jumpi\n      dup1\n      0x3e47d6f3\n      eq\n      tag_3\n      jumpi\n      dup1\n      0x73cef391\n      eq\n      tag_4\n      jumpi\n      dup1\n      0x8da5cb5b\n      eq\n      tag_5\n      jumpi\n      dup1\n      0xb60d4288\n      eq\n      tag_6\n      jumpi\n      dup1\n      0xdc0d3dff\n      eq\n      tag_7\n      jumpi\n    tag_1:\n      revert(0x00, 0x00)\n        /* \"FundMe/FundMe.sol\":2287:4351  function withdraw() public onlyOwner {... */\n    tag_2:\n      callvalue\n      dup1\n      iszero\n      tag_8\n      jumpi\n      revert(0x00, 0x00)\n    tag_8:\n      pop\n      tag_9\n      tag_10\n      jump\t// in\n    tag_9:\n      stop\n        /* \"FundMe/FundMe.sol\":550:626  mapping(address funder => uint256 amountFunded) public addressToAmountFunded */\n    tag_3:\n      callvalue\n      dup1\n      iszero\n      tag_11\n      jumpi\n      revert(0x00, 0x00)\n    tag_11:\n      pop\n      tag_12\n      0x04\n      dup1\n      calldatasize\n      sub\n      dup2\n      add\n      swap1\n      tag_13\n      swap2\n      swap1\n      tag_14\n      jump\t// in\n    tag_13:\n      tag_15\n      jump\t// in\n    tag_12:\n      mload(0x40)\n      tag_16\n      swap2\n      swap1\n      tag_17\n      jump\t// in\n    tag_16:\n      mload(0x40)\n      dup1\n      swap2\n      sub\n      swap1\n      return\n        /* \"FundMe/FundMe.sol\":428:457  uint256 public miniUSD = 5e18 */\n    tag_4:\n      callvalue\n      dup1\n      iszero\n      tag_18\n      jumpi\n      revert(0x00, 0x00)\n    tag_18:\n      pop\n      tag_19\n      tag_20\n      jump\t// in\n    tag_19:\n      mload(0x40)\n      tag_21\n      swap2\n      swap1\n      tag_17\n      jump\t// in\n    tag_21:\n      mload(0x40)\n      dup1\n      swap2\n      sub\n      swap1\n      return\n        /* \"FundMe/FundMe.sol\":705:725  address public owner */\n    tag_5:\n      callvalue\n      dup1\n      iszero\n      tag_22\n      jumpi\n      revert(0x00, 0x00)\n    tag_22:\n      pop\n      tag_23\n      tag_24\n      jump\t// in\n    tag_23:\n      mload(0x40)\n      tag_25\n      swap2\n      swap1\n      tag_26\n      jump\t// in\n    tag_25:\n      mload(0x40)\n      dup1\n      swap2\n      sub\n      swap1\n      return\n        /* \"FundMe/FundMe.sol\":849:2197  function fund() public payable{... */\n    tag_6:\n      tag_27\n      tag_28\n      jump\t// in\n    tag_27:\n      stop\n        /* \"FundMe/FundMe.sol\":485:509  address[] public funders */\n    tag_7:\n      callvalue\n      dup1\n      iszero\n      tag_29\n      jumpi\n      revert(0x00, 0x00)\n    tag_29:\n      pop\n      tag_30\n      0x04\n      dup1\n      calldatasize\n      sub\n      dup2\n      add\n      swap1\n      tag_31\n      swap2\n      swap1\n      tag_32\n      jump\t// in\n    tag_31:\n      tag_33\n      jump\t// in\n    tag_30:\n      mload(0x40)\n      tag_34\n      swap2\n      swap1\n      tag_26\n      jump\t// in\n    tag_34:\n      mload(0x40)\n      dup1\n      swap2\n      sub\n      swap1\n      return\n        /* \"FundMe/FundMe.sol\":2287:4351  function withdraw() public onlyOwner {... */\n    tag_10:\n        /* \"FundMe/FundMe.sol\":4711:4716  owner */\n      0x03\n      0x00\n      swap1\n      sload\n      swap1\n      0x0100\n      exp\n      swap1\n      div\n      0xffffffffffffffffffffffffffffffffffffffff\n      and\n        /* \"FundMe/FundMe.sol\":4697:4716  msg.sender == owner */\n      0xffffffffffffffffffffffffffffffffffffffff\n      and\n        /* \"FundMe/FundMe.sol\":4697:4707  msg.sender */\n      caller\n        /* \"FundMe/FundMe.sol\":4697:4716  msg.sender == owner */\n      0xffffffffffffffffffffffffffffffffffffffff\n      and\n      eq\n        /* \"FundMe/FundMe.sol\":4689:4734  require(msg.sender == owner, \"must be owner\") */\n      tag_36\n      jumpi\n      mload(0x40)\n      0x08c379a000000000000000000000000000000000000000000000000000000000\n      dup2\n      mstore\n      0x04\n      add\n      tag_37\n      swap1\n      tag_38\n      jump\t// in\n    tag_37:\n      mload(0x40)\n      dup1\n      swap2\n      sub\n      swap1\n      revert\n    tag_36:\n        /* \"FundMe/FundMe.sol\":2412:2431  uint256 funderIndex */\n      0x00\n        /* \"FundMe/FundMe.sol\":2434:2435  0 */\n      0x00\n        /* \"FundMe/FundMe.sol\":2412:2435  uint256 funderIndex = 0 */\n      swap1\n      pop\n        /* \"FundMe/FundMe.sol\":2407:2594  for (uint256 funderIndex = 0; funderIndex < funders.length; funderIndex++) {... */\n    tag_40:\n        /* \"FundMe/FundMe.sol\":2451:2458  funders */\n      0x01\n        /* \"FundMe/FundMe.sol\":2451:2465  funders.length */\n      dup1\n      sload\n      swap1\n      pop\n        /* \"FundMe/FundMe.sol\":2437:2448  funderIndex */\n      dup2\n        /* \"FundMe/FundMe.sol\":2437:2465  funderIndex < funders.length */\n      lt\n        /* \"FundMe/FundMe.sol\":2407:2594  for (uint256 funderIndex = 0; funderIndex < funders.length; funderIndex++) {... */\n      iszero\n      tag_41\n      jumpi\n        /* \"FundMe/FundMe.sol\":2497:2511  address funder */\n      0x00\n        /* \"FundMe/FundMe.sol\":2514:2521  funders */\n      0x01\n        /* \"FundMe/FundMe.sol\":2522:2533  funderIndex */\n      dup3\n        /* \"FundMe/FundMe.sol\":2514:2534  funders[funderIndex] */\n      dup2\n      sload\n      dup2\n      lt\n      tag_43\n      jumpi\n      tag_44\n      tag_45\n      jump\t// in\n    tag_44:\n    tag_43:\n      swap1\n      0x00\n      mstore\n      keccak256(0x00, 0x20)\n      add\n      0x00\n      swap1\n      sload\n      swap1\n      0x0100\n      exp\n      swap1\n      div\n      0xffffffffffffffffffffffffffffffffffffffff\n      and\n        /* \"FundMe/FundMe.sol\":2497:2534  address funder = funders[funderIndex] */\n      swap1\n      pop\n        /* \"FundMe/FundMe.sol\":2581:2582  0 */\n      0x00\n        /* \"FundMe/FundMe.sol\":2549:2570  addressToAmountFunded */\n      0x02\n        /* \"FundMe/FundMe.sol\":2549:2578  addressToAmountFunded[funder] */\n      0x00\n        /* \"FundMe/FundMe.sol\":2571:2577  funder */\n      dup4\n        /* \"FundMe/FundMe.sol\":2549:2578  addressToAmountFunded[funder] */\n      0xffffffffffffffffffffffffffffffffffffffff\n      and\n      0xffffffffffffffffffffffffffffffffffffffff\n      and\n      dup2\n      mstore\n      0x20\n      add\n      swap1\n      dup2\n      mstore\n      0x20\n      add\n      0x00\n      keccak256\n        /* \"FundMe/FundMe.sol\":2549:2582  addressToAmountFunded[funder] = 0 */\n      dup2\n      swap1\n      sstore\n      pop\n        /* \"FundMe/FundMe.sol\":2482:2594  {... */\n      pop\n        /* \"FundMe/FundMe.sol\":2467:2480  funderIndex++ */\n      dup1\n      dup1\n      0x01\n      add\n      swap2\n      pop\n      pop\n        /* \"FundMe/FundMe.sol\":2407:2594  for (uint256 funderIndex = 0; funderIndex < funders.length; funderIndex++) {... */\n      jump(tag_40)\n    tag_41:\n      pop\n        /* \"FundMe/FundMe.sol\":2854:2855  0 */\n      0x00\n        /* \"FundMe/FundMe.sol\":2840:2856  new address[](0) */\n      0xffffffffffffffff\n      dup2\n      gt\n      iszero\n      tag_47\n      jumpi\n      tag_48\n      tag_49\n      jump\t// in\n    tag_48:\n    tag_47:\n      mload(0x40)\n      swap1\n      dup1\n      dup3\n      mstore\n      dup1\n      0x20\n      mul\n      0x20\n      add\n      dup3\n      add\n      0x40\n      mstore\n      dup1\n      iszero\n      tag_50\n      jumpi\n      dup2\n      0x20\n      add\n      0x20\n      dup3\n      mul\n      dup1\n      calldatasize\n      dup4\n      calldatacopy\n      dup1\n      dup3\n      add\n      swap2\n      pop\n      pop\n      swap1\n      pop\n    tag_50:\n      pop\n        /* \"FundMe/FundMe.sol\":2830:2837  funders */\n      0x01\n        /* \"FundMe/FundMe.sol\":2830:2856  funders = new address[](0) */\n      swap1\n      dup1\n      mload\n      swap1\n      0x20\n      add\n      swap1\n      tag_51\n      swap3\n      swap2\n      swap1\n      tag_52\n      jump\t// in\n    tag_51:\n      pop\n        /* \"FundMe/FundMe.sol\":4213:4229  bool callSuccess */\n      0x00\n        /* \"FundMe/FundMe.sol\":4243:4253  msg.sender */\n      caller\n        /* \"FundMe/FundMe.sol\":4235:4259  payable(msg.sender).call */\n      0xffffffffffffffffffffffffffffffffffffffff\n      and\n        /* \"FundMe/FundMe.sol\":4267:4288  address(this).balance */\n      selfbalance\n        /* \"FundMe/FundMe.sol\":4235:4293  payable(msg.sender).call{value: address(this).balance}(\"\") */\n      mload(0x40)\n      tag_53\n      swap1\n      tag_54\n      jump\t// in\n    tag_53:\n      0x00\n      mload(0x40)\n      dup1\n      dup4\n      sub\n      dup2\n      dup6\n      dup8\n      gas\n      call\n      swap3\n      pop\n      pop\n      pop\n      returndatasize\n      dup1\n      0x00\n      dup2\n      eq\n      tag_57\n      jumpi\n      mload(0x40)\n      swap2\n      pop\n      and(add(returndatasize, 0x3f), not(0x1f))\n      dup3\n      add\n      0x40\n      mstore\n      returndatasize\n      dup3\n      mstore\n      returndatasize\n      0x00\n      0x20\n      dup5\n      add\n      returndatacopy\n      jump(tag_56)\n    tag_57:\n      0x60\n      swap2\n      pop\n    tag_56:\n      pop\n        /* \"FundMe/FundMe.sol\":4212:4293  (bool callSuccess, ) = payable(msg.sender).call{value: address(this).balance}(\"\") */\n      pop\n      swap1\n      pop\n        /* \"FundMe/FundMe.sol\":4312:4323  callSuccess */\n      dup1\n        /* \"FundMe/FundMe.sol\":4304:4343  require(callSuccess, \"transfer failed\") */\n      tag_58\n      jumpi\n      mload(0x40)\n      0x08c379a000000000000000000000000000000000000000000000000000000000\n      dup2\n      mstore\n      0x04\n      add\n      tag_59\n      swap1\n      tag_60\n      jump\t// in\n    tag_59:\n      mload(0x40)\n      dup1\n      swap2\n      sub\n      swap1\n      revert\n    tag_58:\n        /* \"FundMe/FundMe.sol\":2324:4351  {... */\n      pop\n        /* \"FundMe/FundMe.sol\":2287:4351  function withdraw() public onlyOwner {... */\n      jump\t// out\n        /* \"FundMe/FundMe.sol\":550:626  mapping(address funder => uint256 amountFunded) public addressToAmountFunded */\n    tag_15:\n      mstore(0x20, 0x02)\n      dup1\n      0x00\n      mstore\n      keccak256(0x00, 0x40)\n      0x00\n      swap2\n      pop\n      swap1\n      pop\n      sload\n      dup2\n      jump\t// out\n        /* \"FundMe/FundMe.sol\":428:457  uint256 public miniUSD = 5e18 */\n    tag_20:\n      sload(0x00)\n      dup2\n      jump\t// out\n        /* \"FundMe/FundMe.sol\":705:725  address public owner */\n    tag_24:\n      0x03\n      0x00\n      swap1\n      sload\n      swap1\n      0x0100\n      exp\n      swap1\n      div\n      0xffffffffffffffffffffffffffffffffffffffff\n      and\n      dup2\n      jump\t// out\n        /* \"FundMe/FundMe.sol\":849:2197  function fund() public payable{... */\n    tag_28:\n        /* \"FundMe/FundMe.sol\":1248:1265  uint256 converted */\n      0x00\n        /* \"FundMe/FundMe.sol\":1268:1297  msg.value.getConversionRate() */\n      tag_62\n        /* \"FundMe/FundMe.sol\":1268:1277  msg.value */\n      callvalue\n        /* \"FundMe/FundMe.sol\":1268:1295  msg.value.getConversionRate */\n      tag_63\n        /* \"FundMe/FundMe.sol\":1268:1297  msg.value.getConversionRate() */\n      jump\t// in\n    tag_62:\n        /* \"FundMe/FundMe.sol\":1248:1297  uint256 converted = msg.value.getConversionRate() */\n      swap1\n      pop\n        /* \"FundMe/FundMe.sol\":1486:1493  miniUSD */\n      sload(0x00)\n        /* \"FundMe/FundMe.sol\":1474:1483  converted */\n      dup2\n        /* \"FundMe/FundMe.sol\":1474:1493  converted > miniUSD */\n      gt\n        /* \"FundMe/FundMe.sol\":1466:1521  require(converted > miniUSD, \"did not send enough ETH\") */\n      tag_64\n      jumpi\n      mload(0x40)\n      0x08c379a000000000000000000000000000000000000000000000000000000000\n      dup2\n      mstore\n      0x04\n      add\n      tag_65\n      swap1\n      tag_66\n      jump\t// in\n    tag_65:\n      mload(0x40)\n      dup1\n      swap2\n      sub\n      swap1\n      revert\n    tag_64:\n        /* \"FundMe/FundMe.sol\":1565:1572  funders */\n      0x01\n        /* \"FundMe/FundMe.sol\":1578:1588  msg.sender */\n      caller\n        /* \"FundMe/FundMe.sol\":1565:1589  funders.push(msg.sender) */\n      swap1\n      dup1\n      0x01\n      dup2\n      sload\n      add\n      dup1\n      dup3\n      sstore\n      dup1\n      swap2\n      pop\n      pop\n      0x01\n      swap1\n      sub\n      swap1\n      0x00\n      mstore\n      keccak256(0x00, 0x20)\n      add\n      0x00\n      swap1\n      swap2\n      swap1\n      swap2\n      swap1\n      swap2\n      0x0100\n      exp\n      dup2\n      sload\n      dup2\n      0xffffffffffffffffffffffffffffffffffffffff\n      mul\n      not\n      and\n      swap1\n      dup4\n      0xffffffffffffffffffffffffffffffffffffffff\n      and\n      mul\n      or\n      swap1\n      sstore\n      pop\n        /* \"FundMe/FundMe.sol\":1768:1777  msg.value */\n      callvalue\n        /* \"FundMe/FundMe.sol\":1732:1753  addressToAmountFunded */\n      0x02\n        /* \"FundMe/FundMe.sol\":1732:1765  addressToAmountFunded[msg.sender] */\n      0x00\n        /* \"FundMe/FundMe.sol\":1754:1764  msg.sender */\n      caller\n        /* \"FundMe/FundMe.sol\":1732:1765  addressToAmountFunded[msg.sender] */\n      0xffffffffffffffffffffffffffffffffffffffff\n      and\n      0xffffffffffffffffffffffffffffffffffffffff\n      and\n      dup2\n      mstore\n      0x20\n      add\n      swap1\n      dup2\n      mstore\n      0x20\n      add\n      0x00\n      keccak256\n      sload\n        /* \"FundMe/FundMe.sol\":1732:1777  addressToAmountFunded[msg.sender] + msg.value */\n      tag_68\n      swap2\n      swap1\n      tag_69\n      jump\t// in\n    tag_68:\n        /* \"FundMe/FundMe.sol\":1696:1717  addressToAmountFunded */\n      0x02\n        /* \"FundMe/FundMe.sol\":1696:1729  addressToAmountFunded[msg.sender] */\n      0x00\n        /* \"FundMe/FundMe.sol\":1718:1728  msg.sender */\n      caller\n        /* \"FundMe/FundMe.sol\":1696:1729  addressToAmountFunded[msg.sender] */\n      0xffffffffffffffffffffffffffffffffffffffff\n      and\n      0xffffffffffffffffffffffffffffffffffffffff\n      and\n      dup2\n      mstore\n      0x20\n      add\n      swap1\n      dup2\n      mstore\n      0x20\n      add\n      0x00\n      keccak256\n        /* \"FundMe/FundMe.sol\":1696:1777  addressToAmountFunded[msg.sender] = addressToAmountFunded[msg.sender] + msg.value */\n      dup2\n      swap1\n      sstore\n      pop\n        /* \"FundMe/FundMe.sol\":879:2197  {... */\n      pop\n        /* \"FundMe/FundMe.sol\":849:2197  function fund() public payable{... */\n      jump\t// out\n        /* \"FundMe/FundMe.sol\":485:509  address[] public funders */\n    tag_33:\n      0x01\n      dup2\n      dup2\n      sload\n      dup2\n      lt\n      tag_70\n      jumpi\n      0x00\n      dup1\n      revert\n    tag_70:\n      swap1\n      0x00\n      mstore\n      keccak256(0x00, 0x20)\n      add\n      0x00\n      swap2\n      pop\n      sload\n      swap1\n      0x0100\n      exp\n      swap1\n      div\n      0xffffffffffffffffffffffffffffffffffffffff\n      and\n      dup2\n      jump\t// out\n        /* \"FundMe/PriceConvertor.sol\":1496:1827  function getConversionRate(uint256 ethAmount) internal view returns (uint256) {... */\n    tag_63:\n        /* \"FundMe/PriceConvertor.sol\":1565:1572  uint256 */\n      0x00\n        /* \"FundMe/PriceConvertor.sol\":1585:1601  uint256 ethPrice */\n      0x00\n        /* \"FundMe/PriceConvertor.sol\":1604:1614  getPrice() */\n      tag_73\n        /* \"FundMe/PriceConvertor.sol\":1604:1612  getPrice */\n      tag_74\n        /* \"FundMe/PriceConvertor.sol\":1604:1614  getPrice() */\n      jump\t// in\n    tag_73:\n        /* \"FundMe/PriceConvertor.sol\":1585:1614  uint256 ethPrice = getPrice() */\n      swap1\n      pop\n        /* \"FundMe/PriceConvertor.sol\":1729:1752  uint256 eathAmountInUsd */\n      0x00\n        /* \"FundMe/PriceConvertor.sol\":1780:1784  1e18 */\n      0x0de0b6b3a7640000\n        /* \"FundMe/PriceConvertor.sol\":1768:1776  ethPrice */\n      dup3\n        /* \"FundMe/PriceConvertor.sol\":1756:1765  ethAmount */\n      dup6\n        /* \"FundMe/PriceConvertor.sol\":1756:1776  ethAmount * ethPrice */\n      tag_75\n      swap2\n      swap1\n      tag_76\n      jump\t// in\n    tag_75:\n        /* \"FundMe/PriceConvertor.sol\":1755:1784  (ethAmount * ethPrice) / 1e18 */\n      tag_77\n      swap2\n      swap1\n      tag_78\n      jump\t// in\n    tag_77:\n        /* \"FundMe/PriceConvertor.sol\":1729:1784  uint256 eathAmountInUsd = (ethAmount * ethPrice) / 1e18 */\n      swap1\n      pop\n        /* \"FundMe/PriceConvertor.sol\":1802:1817  eathAmountInUsd */\n      dup1\n        /* \"FundMe/PriceConvertor.sol\":1795:1817  return eathAmountInUsd */\n      swap3\n      pop\n      pop\n      pop\n        /* \"FundMe/PriceConvertor.sol\":1496:1827  function getConversionRate(uint256 ethAmount) internal view returns (uint256) {... */\n      swap2\n      swap1\n      pop\n      jump\t// out\n        /* \"FundMe/PriceConvertor.sol\":455:1488  function getPrice() internal view returns(uint256) {... */\n    tag_74:\n        /* \"FundMe/PriceConvertor.sol\":497:504  uint256 */\n      0x00\n        /* \"FundMe/PriceConvertor.sol\":876:907  AggregatorV3Interface priceFeed */\n      0x00\n        /* \"FundMe/PriceConvertor.sol\":932:974  0x694AA1769357215DE4FAC081bf1f309aDC325306 */\n      0x694aa1769357215de4fac081bf1f309adc325306\n        /* \"FundMe/PriceConvertor.sol\":876:975  AggregatorV3Interface priceFeed = AggregatorV3Interface(0x694AA1769357215DE4FAC081bf1f309aDC325306) */\n      swap1\n      pop\n        /* \"FundMe/PriceConvertor.sol\":1292:1304  int256 price */\n      0x00\n        /* \"FundMe/PriceConvertor.sol\":1311:1320  priceFeed */\n      dup2\n        /* \"FundMe/PriceConvertor.sol\":1311:1336  priceFeed.latestRoundData */\n      0xffffffffffffffffffffffffffffffffffffffff\n      and\n      0xfeaf968c\n        /* \"FundMe/PriceConvertor.sol\":1311:1338  priceFeed.latestRoundData() */\n      mload(0x40)\n      dup2\n      0xffffffff\n      and\n      0xe0\n      shl\n      dup2\n      mstore\n      0x04\n      add\n      0xa0\n      mload(0x40)\n      dup1\n      dup4\n      sub\n      dup2\n      dup7\n      gas\n      staticcall\n      iszero\n      dup1\n      iszero\n      tag_81\n      jumpi\n      returndatacopy(0x00, 0x00, returndatasize)\n      revert(0x00, returndatasize)\n    tag_81:\n      pop\n      pop\n      pop\n      pop\n      mload(0x40)\n      returndatasize\n      not(0x1f)\n      0x1f\n      dup3\n      add\n      and\n      dup3\n      add\n      dup1\n      0x40\n      mstore\n      pop\n      dup2\n      add\n      swap1\n      tag_82\n      swap2\n      swap1\n      tag_83\n      jump\t// in\n    tag_82:\n        /* \"FundMe/PriceConvertor.sol\":1289:1338  (, int256 price,,,) = priceFeed.latestRoundData() */\n      pop\n      pop\n      pop\n      swap2\n      pop\n      pop\n        /* \"FundMe/PriceConvertor.sol\":1474:1478  1e10 */\n      0x02540be400\n        /* \"FundMe/PriceConvertor.sol\":1465:1470  price */\n      dup2\n        /* \"FundMe/PriceConvertor.sol\":1457:1478  uint256(price) * 1e10 */\n      tag_84\n      swap2\n      swap1\n      tag_76\n      jump\t// in\n    tag_84:\n        /* \"FundMe/PriceConvertor.sol\":1450:1478  return uint256(price) * 1e10 */\n      swap3\n      pop\n      pop\n      pop\n        /* \"FundMe/PriceConvertor.sol\":455:1488  function getPrice() internal view returns(uint256) {... */\n      swap1\n      jump\t// out\n    tag_52:\n      dup3\n      dup1\n      sload\n      dup3\n      dup3\n      sstore\n      swap1\n      0x00\n      mstore\n      keccak256(0x00, 0x20)\n      swap1\n      dup2\n      add\n      swap3\n      dup3\n      iszero\n      tag_85\n      jumpi\n      swap2\n      0x20\n      mul\n      dup3\n      add\n    tag_86:\n      dup3\n      dup2\n      gt\n      iszero\n      tag_87\n      jumpi\n      dup3\n      mload\n      dup3\n      exp(0x0100, 0x00)\n      dup2\n      sload\n      dup2\n      0xffffffffffffffffffffffffffffffffffffffff\n      mul\n      not\n      and\n      swap1\n      dup4\n      0xffffffffffffffffffffffffffffffffffffffff\n      and\n      mul\n      or\n      swap1\n      sstore\n      pop\n      swap2\n      0x20\n      add\n      swap2\n      swap1\n      0x01\n      add\n      swap1\n      jump(tag_86)\n    tag_87:\n    tag_85:\n      pop\n      swap1\n      pop\n      tag_88\n      swap2\n      swap1\n      tag_89\n      jump\t// in\n    tag_88:\n      pop\n      swap1\n      jump\t// out\n    tag_89:\n    tag_90:\n      dup1\n      dup3\n      gt\n      iszero\n      tag_91\n      jumpi\n      0x00\n      dup2\n      0x00\n      swap1\n      sstore\n      pop\n      0x01\n      add\n      jump(tag_90)\n    tag_91:\n      pop\n      swap1\n      jump\t// out\n        /* \"#utility.yul\":88:205   */\n    tag_93:\n        /* \"#utility.yul\":197:198   */\n      0x00\n        /* \"#utility.yul\":194:195   */\n      0x00\n        /* \"#utility.yul\":187:199   */\n      revert\n        /* \"#utility.yul\":334:460   */\n    tag_95:\n        /* \"#utility.yul\":371:378   */\n      0x00\n        /* \"#utility.yul\":411:453   */\n      0xffffffffffffffffffffffffffffffffffffffff\n        /* \"#utility.yul\":404:409   */\n      dup3\n        /* \"#utility.yul\":400:454   */\n      and\n        /* \"#utility.yul\":389:454   */\n      swap1\n      pop\n        /* \"#utility.yul\":334:460   */\n      swap2\n      swap1\n      pop\n      jump\t// out\n        /* \"#utility.yul\":466:562   */\n    tag_96:\n        /* \"#utility.yul\":503:510   */\n      0x00\n        /* \"#utility.yul\":532:556   */\n      tag_129\n        /* \"#utility.yul\":550:555   */\n      dup3\n        /* \"#utility.yul\":532:556   */\n      tag_95\n      jump\t// in\n    tag_129:\n        /* \"#utility.yul\":521:556   */\n      swap1\n      pop\n        /* \"#utility.yul\":466:562   */\n      swap2\n      swap1\n      pop\n      jump\t// out\n        /* \"#utility.yul\":568:690   */\n    tag_97:\n        /* \"#utility.yul\":641:665   */\n      tag_131\n        /* \"#utility.yul\":659:664   */\n      dup2\n        /* \"#utility.yul\":641:665   */\n      tag_96\n      jump\t// in\n    tag_131:\n        /* \"#utility.yul\":634:639   */\n      dup2\n        /* \"#utility.yul\":631:666   */\n      eq\n        /* \"#utility.yul\":621:684   */\n      tag_132\n      jumpi\n        /* \"#utility.yul\":680:681   */\n      0x00\n        /* \"#utility.yul\":677:678   */\n      0x00\n        /* \"#utility.yul\":670:682   */\n      revert\n        /* \"#utility.yul\":621:684   */\n    tag_132:\n        /* \"#utility.yul\":568:690   */\n      pop\n      jump\t// out\n        /* \"#utility.yul\":696:835   */\n    tag_98:\n        /* \"#utility.yul\":742:747   */\n      0x00\n        /* \"#utility.yul\":780:786   */\n      dup2\n        /* \"#utility.yul\":767:787   */\n      calldataload\n        /* \"#utility.yul\":758:787   */\n      swap1\n      pop\n        /* \"#utility.yul\":796:829   */\n      tag_134\n        /* \"#utility.yul\":823:828   */\n      dup2\n        /* \"#utility.yul\":796:829   */\n      tag_97\n      jump\t// in\n    tag_134:\n        /* \"#utility.yul\":696:835   */\n      swap3\n      swap2\n      pop\n      pop\n      jump\t// out\n        /* \"#utility.yul\":841:1170   */\n    tag_14:\n        /* \"#utility.yul\":900:906   */\n      0x00\n        /* \"#utility.yul\":949:951   */\n      0x20\n        /* \"#utility.yul\":937:946   */\n      dup3\n        /* \"#utility.yul\":928:935   */\n      dup5\n        /* \"#utility.yul\":924:947   */\n      sub\n        /* \"#utility.yul\":920:952   */\n      slt\n        /* \"#utility.yul\":917:1036   */\n      iszero\n      tag_136\n      jumpi\n        /* \"#utility.yul\":955:1034   */\n      tag_137\n      tag_93\n      jump\t// in\n    tag_137:\n        /* \"#utility.yul\":917:1036   */\n    tag_136:\n        /* \"#utility.yul\":1075:1076   */\n      0x00\n        /* \"#utility.yul\":1100:1153   */\n      tag_138\n        /* \"#utility.yul\":1145:1152   */\n      dup5\n        /* \"#utility.yul\":1136:1142   */\n      dup3\n        /* \"#utility.yul\":1125:1134   */\n      dup6\n        /* \"#utility.yul\":1121:1143   */\n      add\n        /* \"#utility.yul\":1100:1153   */\n      tag_98\n      jump\t// in\n    tag_138:\n        /* \"#utility.yul\":1090:1153   */\n      swap2\n      pop\n        /* \"#utility.yul\":1046:1163   */\n      pop\n        /* \"#utility.yul\":841:1170   */\n      swap3\n      swap2\n      pop\n      pop\n      jump\t// out\n        /* \"#utility.yul\":1176:1253   */\n    tag_99:\n        /* \"#utility.yul\":1213:1220   */\n      0x00\n        /* \"#utility.yul\":1242:1247   */\n      dup2\n        /* \"#utility.yul\":1231:1247   */\n      swap1\n      pop\n        /* \"#utility.yul\":1176:1253   */\n      swap2\n      swap1\n      pop\n      jump\t// out\n        /* \"#utility.yul\":1259:1377   */\n    tag_100:\n        /* \"#utility.yul\":1346:1370   */\n      tag_141\n        /* \"#utility.yul\":1364:1369   */\n      dup2\n        /* \"#utility.yul\":1346:1370   */\n      tag_99\n      jump\t// in\n    tag_141:\n        /* \"#utility.yul\":1341:1344   */\n      dup3\n        /* \"#utility.yul\":1334:1371   */\n      mstore\n        /* \"#utility.yul\":1259:1377   */\n      pop\n      pop\n      jump\t// out\n        /* \"#utility.yul\":1383:1605   */\n    tag_17:\n        /* \"#utility.yul\":1476:1480   */\n      0x00\n        /* \"#utility.yul\":1514:1516   */\n      0x20\n        /* \"#utility.yul\":1503:1512   */\n      dup3\n        /* \"#utility.yul\":1499:1517   */\n      add\n        /* \"#utility.yul\":1491:1517   */\n      swap1\n      pop\n        /* \"#utility.yul\":1527:1598   */\n      tag_143\n        /* \"#utility.yul\":1595:1596   */\n      0x00\n        /* \"#utility.yul\":1584:1593   */\n      dup4\n        /* \"#utility.yul\":1580:1597   */\n      add\n        /* \"#utility.yul\":1571:1577   */\n      dup5\n        /* \"#utility.yul\":1527:1598   */\n      tag_100\n      jump\t// in\n    tag_143:\n        /* \"#utility.yul\":1383:1605   */\n      swap3\n      swap2\n      pop\n      pop\n      jump\t// out\n        /* \"#utility.yul\":1611:1729   */\n    tag_101:\n        /* \"#utility.yul\":1698:1722   */\n      tag_145\n        /* \"#utility.yul\":1716:1721   */\n      dup2\n        /* \"#utility.yul\":1698:1722   */\n      tag_96\n      jump\t// in\n    tag_145:\n        /* \"#utility.yul\":1693:1696   */\n      dup3\n        /* \"#utility.yul\":1686:1723   */\n      mstore\n        /* \"#utility.yul\":1611:1729   */\n      pop\n      pop\n      jump\t// out\n        /* \"#utility.yul\":1735:1957   */\n    tag_26:\n        /* \"#utility.yul\":1828:1832   */\n      0x00\n        /* \"#utility.yul\":1866:1868   */\n      0x20\n        /* \"#utility.yul\":1855:1864   */\n      dup3\n        /* \"#utility.yul\":1851:1869   */\n      add\n        /* \"#utility.yul\":1843:1869   */\n      swap1\n      pop\n        /* \"#utility.yul\":1879:1950   */\n      tag_147\n        /* \"#utility.yul\":1947:1948   */\n      0x00\n        /* \"#utility.yul\":1936:1945   */\n      dup4\n        /* \"#utility.yul\":1932:1949   */\n      add\n        /* \"#utility.yul\":1923:1929   */\n      dup5\n        /* \"#utility.yul\":1879:1950   */\n      tag_101\n      jump\t// in\n    tag_147:\n        /* \"#utility.yul\":1735:1957   */\n      swap3\n      swap2\n      pop\n      pop\n      jump\t// out\n        /* \"#utility.yul\":1963:2085   */\n    tag_102:\n        /* \"#utility.yul\":2036:2060   */\n      tag_149\n        /* \"#utility.yul\":2054:2059   */\n      dup2\n        /* \"#utility.yul\":2036:2060   */\n      tag_99\n      jump\t// in\n    tag_149:\n        /* \"#utility.yul\":2029:2034   */\n      dup2\n        /* \"#utility.yul\":2026:2061   */\n      eq\n        /* \"#utility.yul\":2016:2079   */\n      tag_150\n      jumpi\n        /* \"#utility.yul\":2075:2076   */\n      0x00\n        /* \"#utility.yul\":2072:2073   */\n      0x00\n        /* \"#utility.yul\":2065:2077   */\n      revert\n        /* \"#utility.yul\":2016:2079   */\n    tag_150:\n        /* \"#utility.yul\":1963:2085   */\n      pop\n      jump\t// out\n        /* \"#utility.yul\":2091:2230   */\n    tag_103:\n        /* \"#utility.yul\":2137:2142   */\n      0x00\n        /* \"#utility.yul\":2175:2181   */\n      dup2\n        /* \"#utility.yul\":2162:2182   */\n      calldataload\n        /* \"#utility.yul\":2153:2182   */\n      swap1\n      pop\n        /* \"#utility.yul\":2191:2224   */\n      tag_152\n        /* \"#utility.yul\":2218:2223   */\n      dup2\n        /* \"#utility.yul\":2191:2224   */\n      tag_102\n      jump\t// in\n    tag_152:\n        /* \"#utility.yul\":2091:2230   */\n      swap3\n      swap2\n      pop\n      pop\n      jump\t// out\n        /* \"#utility.yul\":2236:2565   */\n    tag_32:\n        /* \"#utility.yul\":2295:2301   */\n      0x00\n        /* \"#utility.yul\":2344:2346   */\n      0x20\n        /* \"#utility.yul\":2332:2341   */\n      dup3\n        /* \"#utility.yul\":2323:2330   */\n      dup5\n        /* \"#utility.yul\":2319:2342   */\n      sub\n        /* \"#utility.yul\":2315:2347   */\n      slt\n        /* \"#utility.yul\":2312:2431   */\n      iszero\n      tag_154\n      jumpi\n        /* \"#utility.yul\":2350:2429   */\n      tag_155\n      tag_93\n      jump\t// in\n    tag_155:\n        /* \"#utility.yul\":2312:2431   */\n    tag_154:\n        /* \"#utility.yul\":2470:2471   */\n      0x00\n        /* \"#utility.yul\":2495:2548   */\n      tag_156\n        /* \"#utility.yul\":2540:2547   */\n      dup5\n        /* \"#utility.yul\":2531:2537   */\n      dup3\n        /* \"#utility.yul\":2520:2529   */\n      dup6\n        /* \"#utility.yul\":2516:2538   */\n      add\n        /* \"#utility.yul\":2495:2548   */\n      tag_103\n      jump\t// in\n    tag_156:\n        /* \"#utility.yul\":2485:2548   */\n      swap2\n      pop\n        /* \"#utility.yul\":2441:2558   */\n      pop\n        /* \"#utility.yul\":2236:2565   */\n      swap3\n      swap2\n      pop\n      pop\n      jump\t// out\n        /* \"#utility.yul\":2571:2740   */\n    tag_104:\n        /* \"#utility.yul\":2655:2666   */\n      0x00\n        /* \"#utility.yul\":2689:2695   */\n      dup3\n        /* \"#utility.yul\":2684:2687   */\n      dup3\n        /* \"#utility.yul\":2677:2696   */\n      mstore\n        /* \"#utility.yul\":2729:2733   */\n      0x20\n        /* \"#utility.yul\":2724:2727   */\n      dup3\n        /* \"#utility.yul\":2720:2734   */\n      add\n        /* \"#utility.yul\":2705:2734   */\n      swap1\n      pop\n        /* \"#utility.yul\":2571:2740   */\n      swap3\n      swap2\n      pop\n      pop\n      jump\t// out\n        /* \"#utility.yul\":2746:2909   */\n    tag_105:\n        /* \"#utility.yul\":2886:2901   */\n      0x6d757374206265206f776e657200000000000000000000000000000000000000\n        /* \"#utility.yul\":2882:2883   */\n      0x00\n        /* \"#utility.yul\":2874:2880   */\n      dup3\n        /* \"#utility.yul\":2870:2884   */\n      add\n        /* \"#utility.yul\":2863:2902   */\n      mstore\n        /* \"#utility.yul\":2746:2909   */\n      pop\n      jump\t// out\n        /* \"#utility.yul\":2915:3281   */\n    tag_106:\n        /* \"#utility.yul\":3057:3060   */\n      0x00\n        /* \"#utility.yul\":3078:3145   */\n      tag_160\n        /* \"#utility.yul\":3142:3144   */\n      0x0d\n        /* \"#utility.yul\":3137:3140   */\n      dup4\n        /* \"#utility.yul\":3078:3145   */\n      tag_104\n      jump\t// in\n    tag_160:\n        /* \"#utility.yul\":3071:3145   */\n      swap2\n      pop\n        /* \"#utility.yul\":3154:3247   */\n      tag_161\n        /* \"#utility.yul\":3243:3246   */\n      dup3\n        /* \"#utility.yul\":3154:3247   */\n      tag_105\n      jump\t// in\n    tag_161:\n        /* \"#utility.yul\":3272:3274   */\n      0x20\n        /* \"#utility.yul\":3267:3270   */\n      dup3\n        /* \"#utility.yul\":3263:3275   */\n      add\n        /* \"#utility.yul\":3256:3275   */\n      swap1\n      pop\n        /* \"#utility.yul\":2915:3281   */\n      swap2\n      swap1\n      pop\n      jump\t// out\n        /* \"#utility.yul\":3287:3706   */\n    tag_38:\n        /* \"#utility.yul\":3453:3457   */\n      0x00\n        /* \"#utility.yul\":3491:3493   */\n      0x20\n        /* \"#utility.yul\":3480:3489   */\n      dup3\n        /* \"#utility.yul\":3476:3494   */\n      add\n        /* \"#utility.yul\":3468:3494   */\n      swap1\n      pop\n        /* \"#utility.yul\":3540:3549   */\n      dup2\n        /* \"#utility.yul\":3534:3538   */\n      dup2\n        /* \"#utility.yul\":3530:3550   */\n      sub\n        /* \"#utility.yul\":3526:3527   */\n      0x00\n        /* \"#utility.yul\":3515:3524   */\n      dup4\n        /* \"#utility.yul\":3511:3528   */\n      add\n        /* \"#utility.yul\":3504:3551   */\n      mstore\n        /* \"#utility.yul\":3568:3699   */\n      tag_163\n        /* \"#utility.yul\":3694:3698   */\n      dup2\n        /* \"#utility.yul\":3568:3699   */\n      tag_106\n      jump\t// in\n    tag_163:\n        /* \"#utility.yul\":3560:3699   */\n      swap1\n      pop\n        /* \"#utility.yul\":3287:3706   */\n      swap2\n      swap1\n      pop\n      jump\t// out\n        /* \"#utility.yul\":3712:3892   */\n    tag_45:\n        /* \"#utility.yul\":3760:3837   */\n      0x4e487b7100000000000000000000000000000000000000000000000000000000\n        /* \"#utility.yul\":3757:3758   */\n      0x00\n        /* \"#utility.yul\":3750:3838   */\n      mstore\n        /* \"#utility.yul\":3857:3861   */\n      0x32\n        /* \"#utility.yul\":3854:3855   */\n      0x04\n        /* \"#utility.yul\":3847:3862   */\n      mstore\n        /* \"#utility.yul\":3881:3885   */\n      0x24\n        /* \"#utility.yul\":3878:3879   */\n      0x00\n        /* \"#utility.yul\":3871:3886   */\n      revert\n        /* \"#utility.yul\":3898:4078   */\n    tag_49:\n        /* \"#utility.yul\":3946:4023   */\n      0x4e487b7100000000000000000000000000000000000000000000000000000000\n        /* \"#utility.yul\":3943:3944   */\n      0x00\n        /* \"#utility.yul\":3936:4024   */\n      mstore\n        /* \"#utility.yul\":4043:4047   */\n      0x41\n        /* \"#utility.yul\":4040:4041   */\n      0x04\n        /* \"#utility.yul\":4033:4048   */\n      mstore\n        /* \"#utility.yul\":4067:4071   */\n      0x24\n        /* \"#utility.yul\":4064:4065   */\n      0x00\n        /* \"#utility.yul\":4057:4072   */\n      revert\n        /* \"#utility.yul\":4084:4231   */\n    tag_107:\n        /* \"#utility.yul\":4185:4196   */\n      0x00\n        /* \"#utility.yul\":4222:4225   */\n      dup2\n        /* \"#utility.yul\":4207:4225   */\n      swap1\n      pop\n        /* \"#utility.yul\":4084:4231   */\n      swap3\n      swap2\n      pop\n      pop\n      jump\t// out\n        /* \"#utility.yul\":4237:4351   */\n    tag_108:\n      pop\n      jump\t// out\n        /* \"#utility.yul\":4357:4755   */\n    tag_109:\n        /* \"#utility.yul\":4516:4519   */\n      0x00\n        /* \"#utility.yul\":4537:4620   */\n      tag_169\n        /* \"#utility.yul\":4618:4619   */\n      0x00\n        /* \"#utility.yul\":4613:4616   */\n      dup4\n        /* \"#utility.yul\":4537:4620   */\n      tag_107\n      jump\t// in\n    tag_169:\n        /* \"#utility.yul\":4530:4620   */\n      swap2\n      pop\n        /* \"#utility.yul\":4629:4722   */\n      tag_170\n        /* \"#utility.yul\":4718:4721   */\n      dup3\n        /* \"#utility.yul\":4629:4722   */\n      tag_108\n      jump\t// in\n    tag_170:\n        /* \"#utility.yul\":4747:4748   */\n      0x00\n        /* \"#utility.yul\":4742:4745   */\n      dup3\n        /* \"#utility.yul\":4738:4749   */\n      add\n        /* \"#utility.yul\":4731:4749   */\n      swap1\n      pop\n        /* \"#utility.yul\":4357:4755   */\n      swap2\n      swap1\n      pop\n      jump\t// out\n        /* \"#utility.yul\":4761:5140   */\n    tag_54:\n        /* \"#utility.yul\":4945:4948   */\n      0x00\n        /* \"#utility.yul\":4967:5114   */\n      tag_172\n        /* \"#utility.yul\":5110:5113   */\n      dup3\n        /* \"#utility.yul\":4967:5114   */\n      tag_109\n      jump\t// in\n    tag_172:\n        /* \"#utility.yul\":4960:5114   */\n      swap2\n      pop\n        /* \"#utility.yul\":5131:5134   */\n      dup2\n        /* \"#utility.yul\":5124:5134   */\n      swap1\n      pop\n        /* \"#utility.yul\":4761:5140   */\n      swap2\n      swap1\n      pop\n      jump\t// out\n        /* \"#utility.yul\":5146:5311   */\n    tag_110:\n        /* \"#utility.yul\":5286:5303   */\n      0x7472616e73666572206661696c65640000000000000000000000000000000000\n        /* \"#utility.yul\":5282:5283   */\n      0x00\n        /* \"#utility.yul\":5274:5280   */\n      dup3\n        /* \"#utility.yul\":5270:5284   */\n      add\n        /* \"#utility.yul\":5263:5304   */\n      mstore\n        /* \"#utility.yul\":5146:5311   */\n      pop\n      jump\t// out\n        /* \"#utility.yul\":5317:5683   */\n    tag_111:\n        /* \"#utility.yul\":5459:5462   */\n      0x00\n        /* \"#utility.yul\":5480:5547   */\n      tag_175\n        /* \"#utility.yul\":5544:5546   */\n      0x0f\n        /* \"#utility.yul\":5539:5542   */\n      dup4\n        /* \"#utility.yul\":5480:5547   */\n      tag_104\n      jump\t// in\n    tag_175:\n        /* \"#utility.yul\":5473:5547   */\n      swap2\n      pop\n        /* \"#utility.yul\":5556:5649   */\n      tag_176\n        /* \"#utility.yul\":5645:5648   */\n      dup3\n        /* \"#utility.yul\":5556:5649   */\n      tag_110\n      jump\t// in\n    tag_176:\n        /* \"#utility.yul\":5674:5676   */\n      0x20\n        /* \"#utility.yul\":5669:5672   */\n      dup3\n        /* \"#utility.yul\":5665:5677   */\n      add\n        /* \"#utility.yul\":5658:5677   */\n      swap1\n      pop\n        /* \"#utility.yul\":5317:5683   */\n      swap2\n      swap1\n      pop\n      jump\t// out\n        /* \"#utility.yul\":5689:6108   */\n    tag_60:\n        /* \"#utility.yul\":5855:5859   */\n      0x00\n        /* \"#utility.yul\":5893:5895   */\n      0x20\n        /* \"#utility.yul\":5882:5891   */\n      dup3\n        /* \"#utility.yul\":5878:5896   */\n      add\n        /* \"#utility.yul\":5870:5896   */\n      swap1\n      pop\n        /* \"#utility.yul\":5942:5951   */\n      dup2\n        /* \"#utility.yul\":5936:5940   */\n      dup2\n        /* \"#utility.yul\":5932:5952   */\n      sub\n        /* \"#utility.yul\":5928:5929   */\n      0x00\n        /* \"#utility.yul\":5917:5926   */\n      dup4\n        /* \"#utility.yul\":5913:5930   */\n      add\n        /* \"#utility.yul\":5906:5953   */\n      mstore\n        /* \"#utility.yul\":5970:6101   */\n      tag_178\n        /* \"#utility.yul\":6096:6100   */\n      dup2\n        /* \"#utility.yul\":5970:6101   */\n      tag_111\n      jump\t// in\n    tag_178:\n        /* \"#utility.yul\":5962:6101   */\n      swap1\n      pop\n        /* \"#utility.yul\":5689:6108   */\n      swap2\n      swap1\n      pop\n      jump\t// out\n        /* \"#utility.yul\":6114:6287   */\n    tag_112:\n        /* \"#utility.yul\":6254:6279   */\n      0x646964206e6f742073656e6420656e6f75676820455448000000000000000000\n        /* \"#utility.yul\":6250:6251   */\n      0x00\n        /* \"#utility.yul\":6242:6248   */\n      dup3\n        /* \"#utility.yul\":6238:6252   */\n      add\n        /* \"#utility.yul\":6231:6280   */\n      mstore\n        /* \"#utility.yul\":6114:6287   */\n      pop\n      jump\t// out\n        /* \"#utility.yul\":6293:6659   */\n    tag_113:\n        /* \"#utility.yul\":6435:6438   */\n      0x00\n        /* \"#utility.yul\":6456:6523   */\n      tag_181\n        /* \"#utility.yul\":6520:6522   */\n      0x17\n        /* \"#utility.yul\":6515:6518   */\n      dup4\n        /* \"#utility.yul\":6456:6523   */\n      tag_104\n      jump\t// in\n    tag_181:\n        /* \"#utility.yul\":6449:6523   */\n      swap2\n      pop\n        /* \"#utility.yul\":6532:6625   */\n      tag_182\n        /* \"#utility.yul\":6621:6624   */\n      dup3\n        /* \"#utility.yul\":6532:6625   */\n      tag_112\n      jump\t// in\n    tag_182:\n        /* \"#utility.yul\":6650:6652   */\n      0x20\n        /* \"#utility.yul\":6645:6648   */\n      dup3\n        /* \"#utility.yul\":6641:6653   */\n      add\n        /* \"#utility.yul\":6634:6653   */\n      swap1\n      pop\n        /* \"#utility.yul\":6293:6659   */\n      swap2\n      swap1\n      pop\n      jump\t// out\n        /* \"#utility.yul\":6665:7084   */\n    tag_66:\n        /* \"#utility.yul\":6831:6835   */\n      0x00\n        /* \"#utility.yul\":6869:6871   */\n      0x20\n        /* \"#utility.yul\":6858:6867   */\n      dup3\n        /* \"#utility.yul\":6854:6872   */\n      add\n        /* \"#utility.yul\":6846:6872   */\n      swap1\n      pop\n        /* \"#utility.yul\":6918:6927   */\n      dup2\n        /* \"#utility.yul\":6912:6916   */\n      dup2\n        /* \"#utility.yul\":6908:6928   */\n      sub\n        /* \"#utility.yul\":6904:6905   */\n      0x00\n        /* \"#utility.yul\":6893:6902   */\n      dup4\n        /* \"#utility.yul\":6889:6906   */\n      add\n        /* \"#utility.yul\":6882:6929   */\n      mstore\n        /* \"#utility.yul\":6946:7077   */\n      tag_184\n        /* \"#utility.yul\":7072:7076   */\n      dup2\n        /* \"#utility.yul\":6946:7077   */\n      tag_113\n      jump\t// in\n    tag_184:\n        /* \"#utility.yul\":6938:7077   */\n      swap1\n      pop\n        /* \"#utility.yul\":6665:7084   */\n      swap2\n      swap1\n      pop\n      jump\t// out\n        /* \"#utility.yul\":7090:7270   */\n    tag_114:\n        /* \"#utility.yul\":7138:7215   */\n      0x4e487b7100000000000000000000000000000000000000000000000000000000\n        /* \"#utility.yul\":7135:7136   */\n      0x00\n        /* \"#utility.yul\":7128:7216   */\n      mstore\n        /* \"#utility.yul\":7235:7239   */\n      0x11\n        /* \"#utility.yul\":7232:7233   */\n      0x04\n        /* \"#utility.yul\":7225:7240   */\n      mstore\n        /* \"#utility.yul\":7259:7263   */\n      0x24\n        /* \"#utility.yul\":7256:7257   */\n      0x00\n        /* \"#utility.yul\":7249:7264   */\n      revert\n        /* \"#utility.yul\":7276:7467   */\n    tag_69:\n        /* \"#utility.yul\":7316:7319   */\n      0x00\n        /* \"#utility.yul\":7335:7355   */\n      tag_187\n        /* \"#utility.yul\":7353:7354   */\n      dup3\n        /* \"#utility.yul\":7335:7355   */\n      tag_99\n      jump\t// in\n    tag_187:\n        /* \"#utility.yul\":7330:7355   */\n      swap2\n      pop\n        /* \"#utility.yul\":7369:7389   */\n      tag_188\n        /* \"#utility.yul\":7387:7388   */\n      dup4\n        /* \"#utility.yul\":7369:7389   */\n      tag_99\n      jump\t// in\n    tag_188:\n        /* \"#utility.yul\":7364:7389   */\n      swap3\n      pop\n        /* \"#utility.yul\":7412:7413   */\n      dup3\n        /* \"#utility.yul\":7409:7410   */\n      dup3\n        /* \"#utility.yul\":7405:7414   */\n      add\n        /* \"#utility.yul\":7398:7414   */\n      swap1\n      pop\n        /* \"#utility.yul\":7433:7436   */\n      dup1\n        /* \"#utility.yul\":7430:7431   */\n      dup3\n        /* \"#utility.yul\":7427:7437   */\n      gt\n        /* \"#utility.yul\":7424:7460   */\n      iszero\n      tag_189\n      jumpi\n        /* \"#utility.yul\":7440:7458   */\n      tag_190\n      tag_114\n      jump\t// in\n    tag_190:\n        /* \"#utility.yul\":7424:7460   */\n    tag_189:\n        /* \"#utility.yul\":7276:7467   */\n      swap3\n      swap2\n      pop\n      pop\n      jump\t// out\n        /* \"#utility.yul\":7473:7883   */\n    tag_76:\n        /* \"#utility.yul\":7513:7520   */\n      0x00\n        /* \"#utility.yul\":7536:7556   */\n      tag_192\n        /* \"#utility.yul\":7554:7555   */\n      dup3\n        /* \"#utility.yul\":7536:7556   */\n      tag_99\n      jump\t// in\n    tag_192:\n        /* \"#utility.yul\":7531:7556   */\n      swap2\n      pop\n        /* \"#utility.yul\":7570:7590   */\n      tag_193\n        /* \"#utility.yul\":7588:7589   */\n      dup4\n        /* \"#utility.yul\":7570:7590   */\n      tag_99\n      jump\t// in\n    tag_193:\n        /* \"#utility.yul\":7565:7590   */\n      swap3\n      pop\n        /* \"#utility.yul\":7625:7626   */\n      dup3\n        /* \"#utility.yul\":7622:7623   */\n      dup3\n        /* \"#utility.yul\":7618:7627   */\n      mul\n        /* \"#utility.yul\":7647:7677   */\n      tag_194\n        /* \"#utility.yul\":7665:7676   */\n      dup2\n        /* \"#utility.yul\":7647:7677   */\n      tag_99\n      jump\t// in\n    tag_194:\n        /* \"#utility.yul\":7636:7677   */\n      swap2\n      pop\n        /* \"#utility.yul\":7826:7827   */\n      dup3\n        /* \"#utility.yul\":7817:7824   */\n      dup3\n        /* \"#utility.yul\":7813:7828   */\n      div\n        /* \"#utility.yul\":7810:7811   */\n      dup5\n        /* \"#utility.yul\":7807:7829   */\n      eq\n        /* \"#utility.yul\":7787:7788   */\n      dup4\n        /* \"#utility.yul\":7780:7789   */\n      iszero\n        /* \"#utility.yul\":7760:7843   */\n      or\n        /* \"#utility.yul\":7737:7876   */\n      tag_195\n      jumpi\n        /* \"#utility.yul\":7856:7874   */\n      tag_196\n      tag_114\n      jump\t// in\n    tag_196:\n        /* \"#utility.yul\":7737:7876   */\n    tag_195:\n        /* \"#utility.yul\":7521:7883   */\n      pop\n        /* \"#utility.yul\":7473:7883   */\n      swap3\n      swap2\n      pop\n      pop\n      jump\t// out\n        /* \"#utility.yul\":7889:8069   */\n    tag_115:\n        /* \"#utility.yul\":7937:8014   */\n      0x4e487b7100000000000000000000000000000000000000000000000000000000\n        /* \"#utility.yul\":7934:7935   */\n      0x00\n        /* \"#utility.yul\":7927:8015   */\n      mstore\n        /* \"#utility.yul\":8034:8038   */\n      0x12\n        /* \"#utility.yul\":8031:8032   */\n      0x04\n        /* \"#utility.yul\":8024:8039   */\n      mstore\n        /* \"#utility.yul\":8058:8062   */\n      0x24\n        /* \"#utility.yul\":8055:8056   */\n      0x00\n        /* \"#utility.yul\":8048:8063   */\n      revert\n        /* \"#utility.yul\":8075:8260   */\n    tag_78:\n        /* \"#utility.yul\":8115:8116   */\n      0x00\n        /* \"#utility.yul\":8132:8152   */\n      tag_199\n        /* \"#utility.yul\":8150:8151   */\n      dup3\n        /* \"#utility.yul\":8132:8152   */\n      tag_99\n      jump\t// in\n    tag_199:\n        /* \"#utility.yul\":8127:8152   */\n      swap2\n      pop\n        /* \"#utility.yul\":8166:8186   */\n      tag_200\n        /* \"#utility.yul\":8184:8185   */\n      dup4\n        /* \"#utility.yul\":8166:8186   */\n      tag_99\n      jump\t// in\n    tag_200:\n        /* \"#utility.yul\":8161:8186   */\n      swap3\n      pop\n        /* \"#utility.yul\":8205:8206   */\n      dup3\n        /* \"#utility.yul\":8195:8230   */\n      tag_201\n      jumpi\n        /* \"#utility.yul\":8210:8228   */\n      tag_202\n      tag_115\n      jump\t// in\n    tag_202:\n        /* \"#utility.yul\":8195:8230   */\n    tag_201:\n        /* \"#utility.yul\":8252:8253   */\n      dup3\n        /* \"#utility.yul\":8249:8250   */\n      dup3\n        /* \"#utility.yul\":8245:8254   */\n      div\n        /* \"#utility.yul\":8240:8254   */\n      swap1\n      pop\n        /* \"#utility.yul\":8075:8260   */\n      swap3\n      swap2\n      pop\n      pop\n      jump\t// out\n        /* \"#utility.yul\":8266:8371   */\n    tag_116:\n        /* \"#utility.yul\":8302:8309   */\n      0x00\n        /* \"#utility.yul\":8342:8364   */\n      0xffffffffffffffffffff\n        /* \"#utility.yul\":8335:8340   */\n      dup3\n        /* \"#utility.yul\":8331:8365   */\n      and\n        /* \"#utility.yul\":8320:8365   */\n      swap1\n      pop\n        /* \"#utility.yul\":8266:8371   */\n      swap2\n      swap1\n      pop\n      jump\t// out\n        /* \"#utility.yul\":8377:8497   */\n    tag_117:\n        /* \"#utility.yul\":8449:8472   */\n      tag_205\n        /* \"#utility.yul\":8466:8471   */\n      dup2\n        /* \"#utility.yul\":8449:8472   */\n      tag_116\n      jump\t// in\n    tag_205:\n        /* \"#utility.yul\":8442:8447   */\n      dup2\n        /* \"#utility.yul\":8439:8473   */\n      eq\n        /* \"#utility.yul\":8429:8491   */\n      tag_206\n      jumpi\n        /* \"#utility.yul\":8487:8488   */\n      0x00\n        /* \"#utility.yul\":8484:8485   */\n      0x00\n        /* \"#utility.yul\":8477:8489   */\n      revert\n        /* \"#utility.yul\":8429:8491   */\n    tag_206:\n        /* \"#utility.yul\":8377:8497   */\n      pop\n      jump\t// out\n        /* \"#utility.yul\":8503:8644   */\n    tag_118:\n        /* \"#utility.yul\":8559:8564   */\n      0x00\n        /* \"#utility.yul\":8590:8596   */\n      dup2\n        /* \"#utility.yul\":8584:8597   */\n      mload\n        /* \"#utility.yul\":8575:8597   */\n      swap1\n      pop\n        /* \"#utility.yul\":8606:8638   */\n      tag_208\n        /* \"#utility.yul\":8632:8637   */\n      dup2\n        /* \"#utility.yul\":8606:8638   */\n      tag_117\n      jump\t// in\n    tag_208:\n        /* \"#utility.yul\":8503:8644   */\n      swap3\n      swap2\n      pop\n      pop\n      jump\t// out\n        /* \"#utility.yul\":8650:8726   */\n    tag_119:\n        /* \"#utility.yul\":8686:8693   */\n      0x00\n        /* \"#utility.yul\":8715:8720   */\n      dup2\n        /* \"#utility.yul\":8704:8720   */\n      swap1\n      pop\n        /* \"#utility.yul\":8650:8726   */\n      swap2\n      swap1\n      pop\n      jump\t// out\n        /* \"#utility.yul\":8732:8852   */\n    tag_120:\n        /* \"#utility.yul\":8804:8827   */\n      tag_211\n        /* \"#utility.yul\":8821:8826   */\n      dup2\n        /* \"#utility.yul\":8804:8827   */\n      tag_119\n      jump\t// in\n    tag_211:\n        /* \"#utility.yul\":8797:8802   */\n      dup2\n        /* \"#utility.yul\":8794:8828   */\n      eq\n        /* \"#utility.yul\":8784:8846   */\n      tag_212\n      jumpi\n        /* \"#utility.yul\":8842:8843   */\n      0x00\n        /* \"#utility.yul\":8839:8840   */\n      0x00\n        /* \"#utility.yul\":8832:8844   */\n      revert\n        /* \"#utility.yul\":8784:8846   */\n    tag_212:\n        /* \"#utility.yul\":8732:8852   */\n      pop\n      jump\t// out\n        /* \"#utility.yul\":8858:8999   */\n    tag_121:\n        /* \"#utility.yul\":8914:8919   */\n      0x00\n        /* \"#utility.yul\":8945:8951   */\n      dup2\n        /* \"#utility.yul\":8939:8952   */\n      mload\n        /* \"#utility.yul\":8930:8952   */\n      swap1\n      pop\n        /* \"#utility.yul\":8961:8993   */\n      tag_214\n        /* \"#utility.yul\":8987:8992   */\n      dup2\n        /* \"#utility.yul\":8961:8993   */\n      tag_120\n      jump\t// in\n    tag_214:\n        /* \"#utility.yul\":8858:8999   */\n      swap3\n      swap2\n      pop\n      pop\n      jump\t// out\n        /* \"#utility.yul\":9005:9148   */\n    tag_122:\n        /* \"#utility.yul\":9062:9067   */\n      0x00\n        /* \"#utility.yul\":9093:9099   */\n      dup2\n        /* \"#utility.yul\":9087:9100   */\n      mload\n        /* \"#utility.yul\":9078:9100   */\n      swap1\n      pop\n        /* \"#utility.yul\":9109:9142   */\n      tag_216\n        /* \"#utility.yul\":9136:9141   */\n      dup2\n        /* \"#utility.yul\":9109:9142   */\n      tag_102\n      jump\t// in\n    tag_216:\n        /* \"#utility.yul\":9005:9148   */\n      swap3\n      swap2\n      pop\n      pop\n      jump\t// out\n        /* \"#utility.yul\":9154:10125   */\n    tag_83:\n        /* \"#utility.yul\":9257:9263   */\n      0x00\n        /* \"#utility.yul\":9265:9271   */\n      0x00\n        /* \"#utility.yul\":9273:9279   */\n      0x00\n        /* \"#utility.yul\":9281:9287   */\n      0x00\n        /* \"#utility.yul\":9289:9295   */\n      0x00\n        /* \"#utility.yul\":9338:9341   */\n      0xa0\n        /* \"#utility.yul\":9326:9335   */\n      dup7\n        /* \"#utility.yul\":9317:9324   */\n      dup9\n        /* \"#utility.yul\":9313:9336   */\n      sub\n        /* \"#utility.yul\":9309:9342   */\n      slt\n        /* \"#utility.yul\":9306:9426   */\n      iszero\n      tag_218\n      jumpi\n        /* \"#utility.yul\":9345:9424   */\n      tag_219\n      tag_93\n      jump\t// in\n    tag_219:\n        /* \"#utility.yul\":9306:9426   */\n    tag_218:\n        /* \"#utility.yul\":9465:9466   */\n      0x00\n        /* \"#utility.yul\":9490:9553   */\n      tag_220\n        /* \"#utility.yul\":9545:9552   */\n      dup9\n        /* \"#utility.yul\":9536:9542   */\n      dup3\n        /* \"#utility.yul\":9525:9534   */\n      dup10\n        /* \"#utility.yul\":9521:9543   */\n      add\n        /* \"#utility.yul\":9490:9553   */\n      tag_118\n      jump\t// in\n    tag_220:\n        /* \"#utility.yul\":9480:9553   */\n      swap6\n      pop\n        /* \"#utility.yul\":9436:9563   */\n      pop\n        /* \"#utility.yul\":9602:9604   */\n      0x20\n        /* \"#utility.yul\":9628:9691   */\n      tag_221\n        /* \"#utility.yul\":9683:9690   */\n      dup9\n        /* \"#utility.yul\":9674:9680   */\n      dup3\n        /* \"#utility.yul\":9663:9672   */\n      dup10\n        /* \"#utility.yul\":9659:9681   */\n      add\n        /* \"#utility.yul\":9628:9691   */\n      tag_121\n      jump\t// in\n    tag_221:\n        /* \"#utility.yul\":9618:9691   */\n      swap5\n      pop\n        /* \"#utility.yul\":9573:9701   */\n      pop\n        /* \"#utility.yul\":9740:9742   */\n      0x40\n        /* \"#utility.yul\":9766:9830   */\n      tag_222\n        /* \"#utility.yul\":9822:9829   */\n      dup9\n        /* \"#utility.yul\":9813:9819   */\n      dup3\n        /* \"#utility.yul\":9802:9811   */\n      dup10\n        /* \"#utility.yul\":9798:9820   */\n      add\n        /* \"#utility.yul\":9766:9830   */\n      tag_122\n      jump\t// in\n    tag_222:\n        /* \"#utility.yul\":9756:9830   */\n      swap4\n      pop\n        /* \"#utility.yul\":9711:9840   */\n      pop\n        /* \"#utility.yul\":9879:9881   */\n      0x60\n        /* \"#utility.yul\":9905:9969   */\n      tag_223\n        /* \"#utility.yul\":9961:9968   */\n      dup9\n        /* \"#utility.yul\":9952:9958   */\n      dup3\n        /* \"#utility.yul\":9941:9950   */\n      dup10\n        /* \"#utility.yul\":9937:9959   */\n      add\n        /* \"#utility.yul\":9905:9969   */\n      tag_122\n      jump\t// in\n    tag_223:\n        /* \"#utility.yul\":9895:9969   */\n      swap3\n      pop\n        /* \"#utility.yul\":9850:9979   */\n      pop\n        /* \"#utility.yul\":10018:10021   */\n      0x80\n        /* \"#utility.yul\":10045:10108   */\n      tag_224\n        /* \"#utility.yul\":10100:10107   */\n      dup9\n        /* \"#utility.yul\":10091:10097   */\n      dup3\n        /* \"#utility.yul\":10080:10089   */\n      dup10\n        /* \"#utility.yul\":10076:10098   */\n      add\n        /* \"#utility.yul\":10045:10108   */\n      tag_118\n      jump\t// in\n    tag_224:\n        /* \"#utility.yul\":10035:10108   */\n      swap2\n      pop\n        /* \"#utility.yul\":9989:10118   */\n      pop\n        /* \"#utility.yul\":9154:10125   */\n      swap3\n      swap6\n      pop\n      swap3\n      swap6\n      swap1\n      swap4\n      pop\n      jump\t// out\n\n    auxdata: 0xa2646970667358221220fb9f815b7e330f487668ce920bf81f841083f563da8ee40a12b509af8b93efa964736f6c634300081e0033\n}\n",
				"bytecode": {
					"linkReferences": {},
					"object": "6080604052674563918244f400005f553480156019575f5ffd5b503360035f6101000a81548173ffffffffffffffffffffffffffffffffffffffff021916908373ffffffffffffffffffffffffffffffffffffffff160217905550610bff806100675f395ff3fe608060405260043610610054575f3560e01c80633ccfd60b146100585780633e47d6f31461006e57806373cef391146100aa5780638da5cb5b146100d4578063b60d4288146100fe578063dc0d3dff14610108575b5f5ffd5b348015610063575f5ffd5b5061006c610144565b005b348015610079575f5ffd5b50610094600480360381019061008f9190610712565b61037f565b6040516100a19190610755565b60405180910390f35b3480156100b5575f5ffd5b506100be610394565b6040516100cb9190610755565b60405180910390f35b3480156100df575f5ffd5b506100e8610399565b6040516100f5919061077d565b60405180910390f35b6101066103be565b005b348015610113575f5ffd5b5061012e600480360381019061012991906107c0565b6104fa565b60405161013b919061077d565b60405180910390f35b60035f9054906101000a900473ffffffffffffffffffffffffffffffffffffffff1673ffffffffffffffffffffffffffffffffffffffff163373ffffffffffffffffffffffffffffffffffffffff16146101d3576040517f08c379a00000000000000000000000000000000000000000000000000000000081526004016101ca90610845565b60405180910390fd5b5f5f90505b600180549050811015610274575f600182815481106101fa576101f9610863565b5b905f5260205f20015f9054906101000a900473ffffffffffffffffffffffffffffffffffffffff1690505f60025f8373ffffffffffffffffffffffffffffffffffffffff1673ffffffffffffffffffffffffffffffffffffffff1681526020019081526020015f20819055505080806001019150506101d8565b505f67ffffffffffffffff81111561028f5761028e610890565b5b6040519080825280602002602001820160405280156102bd5781602001602082028036833780820191505090505b50600190805190602001906102d3929190610612565b505f3373ffffffffffffffffffffffffffffffffffffffff16476040516102f9906108ea565b5f6040518083038185875af1925050503d805f8114610333576040519150601f19603f3d011682016040523d82523d5f602084013e610338565b606091505b505090508061037c576040517f08c379a000000000000000000000000000000000000000000000000000000000815260040161037390610948565b60405180910390fd5b50565b6002602052805f5260405f205f915090505481565b5f5481565b60035f9054906101000a900473ffffffffffffffffffffffffffffffffffffffff1681565b5f6103c834610535565b90505f54811161040d576040517f08c379a0000000000000000000000000000000000000000000000000000000008152600401610404906109b0565b60405180910390fd5b600133908060018154018082558091505060019003905f5260205f20015f9091909190916101000a81548173ffffffffffffffffffffffffffffffffffffffff021916908373ffffffffffffffffffffffffffffffffffffffff1602179055503460025f3373ffffffffffffffffffffffffffffffffffffffff1673ffffffffffffffffffffffffffffffffffffffff1681526020019081526020015f20546104b691906109fb565b60025f3373ffffffffffffffffffffffffffffffffffffffff1673ffffffffffffffffffffffffffffffffffffffff1681526020019081526020015f208190555050565b60018181548110610509575f80fd5b905f5260205f20015f915054906101000a900473ffffffffffffffffffffffffffffffffffffffff1681565b5f5f61053f61056d565b90505f670de0b6b3a764000082856105579190610a2e565b6105619190610a9c565b90508092505050919050565b5f5f73694aa1769357215de4fac081bf1f309adc32530690505f8173ffffffffffffffffffffffffffffffffffffffff1663feaf968c6040518163ffffffff1660e01b815260040160a060405180830381865afa1580156105d0573d5f5f3e3d5ffd5b505050506040513d601f19601f820116820180604052508101906105f49190610b52565b5050509150506402540be4008161060b9190610a2e565b9250505090565b828054828255905f5260205f20908101928215610688579160200282015b82811115610687578251825f6101000a81548173ffffffffffffffffffffffffffffffffffffffff021916908373ffffffffffffffffffffffffffffffffffffffff16021790555091602001919060010190610630565b5b5090506106959190610699565b5090565b5b808211156106b0575f815f90555060010161069a565b5090565b5f5ffd5b5f73ffffffffffffffffffffffffffffffffffffffff82169050919050565b5f6106e1826106b8565b9050919050565b6106f1816106d7565b81146106fb575f5ffd5b50565b5f8135905061070c816106e8565b92915050565b5f60208284031215610727576107266106b4565b5b5f610734848285016106fe565b91505092915050565b5f819050919050565b61074f8161073d565b82525050565b5f6020820190506107685f830184610746565b92915050565b610777816106d7565b82525050565b5f6020820190506107905f83018461076e565b92915050565b61079f8161073d565b81146107a9575f5ffd5b50565b5f813590506107ba81610796565b92915050565b5f602082840312156107d5576107d46106b4565b5b5f6107e2848285016107ac565b91505092915050565b5f82825260208201905092915050565b7f6d757374206265206f776e6572000000000000000000000000000000000000005f82015250565b5f61082f600d836107eb565b915061083a826107fb565b602082019050919050565b5f6020820190508181035f83015261085c81610823565b9050919050565b7f4e487b71000000000000000000000000000000000000000000000000000000005f52603260045260245ffd5b7f4e487b71000000000000000000000000000000000000000000000000000000005f52604160045260245ffd5b5f81905092915050565b50565b5f6108d55f836108bd565b91506108e0826108c7565b5f82019050919050565b5f6108f4826108ca565b9150819050919050565b7f7472616e73666572206661696c656400000000000000000000000000000000005f82015250565b5f610932600f836107eb565b915061093d826108fe565b602082019050919050565b5f6020820190508181035f83015261095f81610926565b9050919050565b7f646964206e6f742073656e6420656e6f756768204554480000000000000000005f82015250565b5f61099a6017836107eb565b91506109a582610966565b602082019050919050565b5f6020820190508181035f8301526109c78161098e565b9050919050565b7f4e487b71000000000000000000000000000000000000000000000000000000005f52601160045260245ffd5b5f610a058261073d565b9150610a108361073d565b9250828201905080821115610a2857610a276109ce565b5b92915050565b5f610a388261073d565b9150610a438361073d565b9250828202610a518161073d565b91508282048414831517610a6857610a676109ce565b5b5092915050565b7f4e487b71000000000000000000000000000000000000000000000000000000005f52601260045260245ffd5b5f610aa68261073d565b9150610ab18361073d565b925082610ac157610ac0610a6f565b5b828204905092915050565b5f69ffffffffffffffffffff82169050919050565b610aea81610acc565b8114610af4575f5ffd5b50565b5f81519050610b0581610ae1565b92915050565b5f819050919050565b610b1d81610b0b565b8114610b27575f5ffd5b50565b5f81519050610b3881610b14565b92915050565b5f81519050610b4c81610796565b92915050565b5f5f5f5f5f60a08688031215610b6b57610b6a6106b4565b5b5f610b7888828901610af7565b9550506020610b8988828901610b2a565b9450506040610b9a88828901610b3e565b9350506060610bab88828901610b3e565b9250506080610bbc88828901610af7565b915050929550929590935056fea2646970667358221220fb9f815b7e330f487668ce920bf81f841083f563da8ee40a12b509af8b93efa964736f6c634300081e0033",
					"opcodes": "PUSH1 0x80 PUSH1 0x40 MSTORE PUSH8 0x4563918244F40000 PUSH0 SSTORE CALLVALUE DUP1 ISZERO PUSH1 0x19 JUMPI PUSH0 PUSH0 REVERT JUMPDEST POP CALLER PUSH1 0x3 PUSH0 PUSH2 0x100 EXP DUP2 SLOAD DUP2 PUSH20 0xFFFFFFFFFFFFFFFFFFFFFFFFFFFFFFFFFFFFFFFF MUL NOT AND SWAP1 DUP4 PUSH20 0xFFFFFFFFFFFFFFFFFFFFFFFFFFFFFFFFFFFFFFFF AND MUL OR SWAP1 SSTORE POP PUSH2 0xBFF DUP1 PUSH2 0x67 PUSH0 CODECOPY PUSH0 RETURN INVALID PUSH1 0x80 PUSH1 0x40 MSTORE PUSH1 0x4 CALLDATASIZE LT PUSH2 0x54 JUMPI PUSH0 CALLDATALOAD PUSH1 0xE0 SHR DUP1 PUSH4 0x3CCFD60B EQ PUSH2 0x58 JUMPI DUP1 PUSH4 0x3E47D6F3 EQ PUSH2 0x6E JUMPI DUP1 PUSH4 0x73CEF391 EQ PUSH2 0xAA JUMPI DUP1 PUSH4 0x8DA5CB5B EQ PUSH2 0xD4 JUMPI DUP1 PUSH4 0xB60D4288 EQ PUSH2 0xFE JUMPI DUP1 PUSH4 0xDC0D3DFF EQ PUSH2 0x108 JUMPI JUMPDEST PUSH0 PUSH0 REVERT JUMPDEST CALLVALUE DUP1 ISZERO PUSH2 0x63 JUMPI PUSH0 PUSH0 REVERT JUMPDEST POP PUSH2 0x6C PUSH2 0x144 JUMP JUMPDEST STOP JUMPDEST CALLVALUE DUP1 ISZERO PUSH2 0x79 JUMPI PUSH0 PUSH0 REVERT JUMPDEST POP PUSH2 0x94 PUSH1 0x4 DUP1 CALLDATASIZE SUB DUP2 ADD SWAP1 PUSH2 0x8F SWAP2 SWAP1 PUSH2 0x712 JUMP JUMPDEST PUSH2 0x37F JUMP JUMPDEST PUSH1 0x40 MLOAD PUSH2 0xA1 SWAP2 SWAP1 PUSH2 0x755 JUMP JUMPDEST PUSH1 0x40 MLOAD DUP1 SWAP2 SUB SWAP1 RETURN JUMPDEST CALLVALUE DUP1 ISZERO PUSH2 0xB5 JUMPI PUSH0 PUSH0 REVERT JUMPDEST POP PUSH2 0xBE PUSH2 0x394 JUMP JUMPDEST PUSH1 0x40 MLOAD PUSH2 0xCB SWAP2 SWAP1 PUSH2 0x755 JUMP JUMPDEST PUSH1 0x40 MLOAD DUP1 SWAP2 SUB SWAP1 RETURN JUMPDEST CALLVALUE DUP1 ISZERO PUSH2 0xDF JUMPI PUSH0 PUSH0 REVERT JUMPDEST POP PUSH2 0xE8 PUSH2 0x399 JUMP JUMPDEST PUSH1 0x40 MLOAD PUSH2 0xF5 SWAP2 SWAP1 PUSH2 0x77D JUMP JUMPDEST PUSH1 0x40 MLOAD DUP1 SWAP2 SUB SWAP1 RETURN JUMPDEST PUSH2 0x106 PUSH2 0x3BE JUMP JUMPDEST STOP JUMPDEST CALLVALUE DUP1 ISZERO PUSH2 0x113 JUMPI PUSH0 PUSH0 REVERT JUMPDEST POP PUSH2 0x12E PUSH1 0x4 DUP1 CALLDATASIZE SUB DUP2 ADD SWAP1 PUSH2 0x129 SWAP2 SWAP1 PUSH2 0x7C0 JUMP JUMPDEST PUSH2 0x4FA JUMP JUMPDEST PUSH1 0x40 MLOAD PUSH2 0x13B SWAP2 SWAP1 PUSH2 0x77D JUMP JUMPDEST PUSH1 0x40 MLOAD DUP1 SWAP2 SUB SWAP1 RETURN JUMPDEST PUSH1 0x3 PUSH0 SWAP1 SLOAD SWAP1 PUSH2 0x100 EXP SWAP1 DIV PUSH20 0xFFFFFFFFFFFFFFFFFFFFFFFFFFFFFFFFFFFFFFFF AND PUSH20 0xFFFFFFFFFFFFFFFFFFFFFFFFFFFFFFFFFFFFFFFF AND CALLER PUSH20 0xFFFFFFFFFFFFFFFFFFFFFFFFFFFFFFFFFFFFFFFF AND EQ PUSH2 0x1D3 JUMPI PUSH1 0x40 MLOAD PUSH32 0x8C379A000000000000000000000000000000000000000000000000000000000 DUP2 MSTORE PUSH1 0x4 ADD PUSH2 0x1CA SWAP1 PUSH2 0x845 JUMP JUMPDEST PUSH1 0x40 MLOAD DUP1 SWAP2 SUB SWAP1 REVERT JUMPDEST PUSH0 PUSH0 SWAP1 POP JUMPDEST PUSH1 0x1 DUP1 SLOAD SWAP1 POP DUP2 LT ISZERO PUSH2 0x274 JUMPI PUSH0 PUSH1 0x1 DUP3 DUP2 SLOAD DUP2 LT PUSH2 0x1FA JUMPI PUSH2 0x1F9 PUSH2 0x863 JUMP JUMPDEST JUMPDEST SWAP1 PUSH0 MSTORE PUSH1 0x20 PUSH0 KECCAK256 ADD PUSH0 SWAP1 SLOAD SWAP1 PUSH2 0x100 EXP SWAP1 DIV PUSH20 0xFFFFFFFFFFFFFFFFFFFFFFFFFFFFFFFFFFFFFFFF AND SWAP1 POP PUSH0 PUSH1 0x2 PUSH0 DUP4 PUSH20 0xFFFFFFFFFFFFFFFFFFFFFFFFFFFFFFFFFFFFFFFF AND PUSH20 0xFFFFFFFFFFFFFFFFFFFFFFFFFFFFFFFFFFFFFFFF AND DUP2 MSTORE PUSH1 0x20 ADD SWAP1 DUP2 MSTORE PUSH1 0x20 ADD PUSH0 KECCAK256 DUP2 SWAP1 SSTORE POP POP DUP1 DUP1 PUSH1 0x1 ADD SWAP2 POP POP PUSH2 0x1D8 JUMP JUMPDEST POP PUSH0 PUSH8 0xFFFFFFFFFFFFFFFF DUP2 GT ISZERO PUSH2 0x28F JUMPI PUSH2 0x28E PUSH2 0x890 JUMP JUMPDEST JUMPDEST PUSH1 0x40 MLOAD SWAP1 DUP1 DUP3 MSTORE DUP1 PUSH1 0x20 MUL PUSH1 0x20 ADD DUP3 ADD PUSH1 0x40 MSTORE DUP1 ISZERO PUSH2 0x2BD JUMPI DUP2 PUSH1 0x20 ADD PUSH1 0x20 DUP3 MUL DUP1 CALLDATASIZE DUP4 CALLDATACOPY DUP1 DUP3 ADD SWAP2 POP POP SWAP1 POP JUMPDEST POP PUSH1 0x1 SWAP1 DUP1 MLOAD SWAP1 PUSH1 0x20 ADD SWAP1 PUSH2 0x2D3 SWAP3 SWAP2 SWAP1 PUSH2 0x612 JUMP JUMPDEST POP PUSH0 CALLER PUSH20 0xFFFFFFFFFFFFFFFFFFFFFFFFFFFFFFFFFFFFFFFF AND SELFBALANCE PUSH1 0x40 MLOAD PUSH2 0x2F9 SWAP1 PUSH2 0x8EA JUMP JUMPDEST PUSH0 PUSH1 0x40 MLOAD DUP1 DUP4 SUB DUP2 DUP6 DUP8 GAS CALL SWAP3 POP POP POP RETURNDATASIZE DUP1 PUSH0 DUP2 EQ PUSH2 0x333 JUMPI PUSH1 0x40 MLOAD SWAP2 POP PUSH1 0x1F NOT PUSH1 0x3F RETURNDATASIZE ADD AND DUP3 ADD PUSH1 0x40 MSTORE RETURNDATASIZE DUP3 MSTORE RETURNDATASIZE PUSH0 PUSH1 0x20 DUP5 ADD RETURNDATACOPY PUSH2 0x338 JUMP JUMPDEST PUSH1 0x60 SWAP2 POP JUMPDEST POP POP SWAP1 POP DUP1 PUSH2 0x37C JUMPI PUSH1 0x40 MLOAD PUSH32 0x8C379A000000000000000000000000000000000000000000000000000000000 DUP2 MSTORE PUSH1 0x4 ADD PUSH2 0x373 SWAP1 PUSH2 0x948 JUMP JUMPDEST PUSH1 0x40 MLOAD DUP1 SWAP2 SUB SWAP1 REVERT JUMPDEST POP JUMP JUMPDEST PUSH1 0x2 PUSH1 0x20 MSTORE DUP1 PUSH0 MSTORE PUSH1 0x40 PUSH0 KECCAK256 PUSH0 SWAP2 POP SWAP1 POP SLOAD DUP2 JUMP JUMPDEST PUSH0 SLOAD DUP2 JUMP JUMPDEST PUSH1 0x3 PUSH0 SWAP1 SLOAD SWAP1 PUSH2 0x100 EXP SWAP1 DIV PUSH20 0xFFFFFFFFFFFFFFFFFFFFFFFFFFFFFFFFFFFFFFFF AND DUP2 JUMP JUMPDEST PUSH0 PUSH2 0x3C8 CALLVALUE PUSH2 0x535 JUMP JUMPDEST SWAP1 POP PUSH0 SLOAD DUP2 GT PUSH2 0x40D JUMPI PUSH1 0x40 MLOAD PUSH32 0x8C379A000000000000000000000000000000000000000000000000000000000 DUP2 MSTORE PUSH1 0x4 ADD PUSH2 0x404 SWAP1 PUSH2 0x9B0 JUMP JUMPDEST PUSH1 0x40 MLOAD DUP1 SWAP2 SUB SWAP1 REVERT JUMPDEST PUSH1 0x1 CALLER SWAP1 DUP1 PUSH1 0x1 DUP2 SLOAD ADD DUP1 DUP3 SSTORE DUP1 SWAP2 POP POP PUSH1 0x1 SWAP1 SUB SWAP1 PUSH0 MSTORE PUSH1 0x20 PUSH0 KECCAK256 ADD PUSH0 SWAP1 SWAP2 SWAP1 SWAP2 SWAP1 SWAP2 PUSH2 0x100 EXP DUP2 SLOAD DUP2 PUSH20 0xFFFFFFFFFFFFFFFFFFFFFFFFFFFFFFFFFFFFFFFF MUL NOT AND SWAP1 DUP4 PUSH20 0xFFFFFFFFFFFFFFFFFFFFFFFFFFFFFFFFFFFFFFFF AND MUL OR SWAP1 SSTORE POP CALLVALUE PUSH1 0x2 PUSH0 CALLER PUSH20 0xFFFFFFFFFFFFFFFFFFFFFFFFFFFFFFFFFFFFFFFF AND PUSH20 0xFFFFFFFFFFFFFFFFFFFFFFFFFFFFFFFFFFFFFFFF AND DUP2 MSTORE PUSH1 0x20 ADD SWAP1 DUP2 MSTORE PUSH1 0x20 ADD PUSH0 KECCAK256 SLOAD PUSH2 0x4B6 SWAP2 SWAP1 PUSH2 0x9FB JUMP JUMPDEST PUSH1 0x2 PUSH0 CALLER PUSH20 0xFFFFFFFFFFFFFFFFFFFFFFFFFFFFFFFFFFFFFFFF AND PUSH20 0xFFFFFFFFFFFFFFFFFFFFFFFFFFFFFFFFFFFFFFFF AND DUP2 MSTORE PUSH1 0x20 ADD SWAP1 DUP2 MSTORE PUSH1 0x20 ADD PUSH0 KECCAK256 DUP2 SWAP1 SSTORE POP POP JUMP JUMPDEST PUSH1 0x1 DUP2 DUP2 SLOAD DUP2 LT PUSH2 0x509 JUMPI PUSH0 DUP1 REVERT JUMPDEST SWAP1 PUSH0 MSTORE PUSH1 0x20 PUSH0 KECCAK256 ADD PUSH0 SWAP2 POP SLOAD SWAP1 PUSH2 0x100 EXP SWAP1 DIV PUSH20 0xFFFFFFFFFFFFFFFFFFFFFFFFFFFFFFFFFFFFFFFF AND DUP2 JUMP JUMPDEST PUSH0 PUSH0 PUSH2 0x53F PUSH2 0x56D JUMP JUMPDEST SWAP1 POP PUSH0 PUSH8 0xDE0B6B3A7640000 DUP3 DUP6 PUSH2 0x557 SWAP2 SWAP1 PUSH2 0xA2E JUMP JUMPDEST PUSH2 0x561 SWAP2 SWAP1 PUSH2 0xA9C JUMP JUMPDEST SWAP1 POP DUP1 SWAP3 POP POP POP SWAP2 SWAP1 POP JUMP JUMPDEST PUSH0 PUSH0 PUSH20 0x694AA1769357215DE4FAC081BF1F309ADC325306 SWAP1 POP PUSH0 DUP2 PUSH20 0xFFFFFFFFFFFFFFFFFFFFFFFFFFFFFFFFFFFFFFFF AND PUSH4 0xFEAF968C PUSH1 0x40 MLOAD DUP2 PUSH4 0xFFFFFFFF AND PUSH1 0xE0 SHL DUP2 MSTORE PUSH1 0x4 ADD PUSH1 0xA0 PUSH1 0x40 MLOAD DUP1 DUP4 SUB DUP2 DUP7 GAS STATICCALL ISZERO DUP1 ISZERO PUSH2 0x5D0 JUMPI RETURNDATASIZE PUSH0 PUSH0 RETURNDATACOPY RETURNDATASIZE PUSH0 REVERT JUMPDEST POP POP POP POP PUSH1 0x40 MLOAD RETURNDATASIZE PUSH1 0x1F NOT PUSH1 0x1F DUP3 ADD AND DUP3 ADD DUP1 PUSH1 0x40 MSTORE POP DUP2 ADD SWAP1 PUSH2 0x5F4 SWAP2 SWAP1 PUSH2 0xB52 JUMP JUMPDEST POP POP POP SWAP2 POP POP PUSH5 0x2540BE400 DUP2 PUSH2 0x60B SWAP2 SWAP1 PUSH2 0xA2E JUMP JUMPDEST SWAP3 POP POP POP SWAP1 JUMP JUMPDEST DUP3 DUP1 SLOAD DUP3 DUP3 SSTORE SWAP1 PUSH0 MSTORE PUSH1 0x20 PUSH0 KECCAK256 SWAP1 DUP2 ADD SWAP3 DUP3 ISZERO PUSH2 0x688 JUMPI SWAP2 PUSH1 0x20 MUL DUP3 ADD JUMPDEST DUP3 DUP2 GT ISZERO PUSH2 0x687 JUMPI DUP3 MLOAD DUP3 PUSH0 PUSH2 0x100 EXP DUP2 SLOAD DUP2 PUSH20 0xFFFFFFFFFFFFFFFFFFFFFFFFFFFFFFFFFFFFFFFF MUL NOT AND SWAP1 DUP4 PUSH20 0xFFFFFFFFFFFFFFFFFFFFFFFFFFFFFFFFFFFFFFFF AND MUL OR SWAP1 SSTORE POP SWAP2 PUSH1 0x20 ADD SWAP2 SWAP1 PUSH1 0x1 ADD SWAP1 PUSH2 0x630 JUMP JUMPDEST JUMPDEST POP SWAP1 POP PUSH2 0x695 SWAP2 SWAP1 PUSH2 0x699 JUMP JUMPDEST POP SWAP1 JUMP JUMPDEST JUMPDEST DUP1 DUP3 GT ISZERO PUSH2 0x6B0 JUMPI PUSH0 DUP2 PUSH0 SWAP1 SSTORE POP PUSH1 0x1 ADD PUSH2 0x69A JUMP JUMPDEST POP SWAP1 JUMP JUMPDEST PUSH0 PUSH0 REVERT JUMPDEST PUSH0 PUSH20 0xFFFFFFFFFFFFFFFFFFFFFFFFFFFFFFFFFFFFFFFF DUP3 AND SWAP1 POP SWAP2 SWAP1 POP JUMP JUMPDEST PUSH0 PUSH2 0x6E1 DUP3 PUSH2 0x6B8 JUMP JUMPDEST SWAP1 POP SWAP2 SWAP1 POP JUMP JUMPDEST PUSH2 0x6F1 DUP2 PUSH2 0x6D7 JUMP JUMPDEST DUP2 EQ PUSH2 0x6FB JUMPI PUSH0 PUSH0 REVERT JUMPDEST POP JUMP JUMPDEST PUSH0 DUP2 CALLDATALOAD SWAP1 POP PUSH2 0x70C DUP2 PUSH2 0x6E8 JUMP JUMPDEST SWAP3 SWAP2 POP POP JUMP JUMPDEST PUSH0 PUSH1 0x20 DUP3 DUP5 SUB SLT ISZERO PUSH2 0x727 JUMPI PUSH2 0x726 PUSH2 0x6B4 JUMP JUMPDEST JUMPDEST PUSH0 PUSH2 0x734 DUP5 DUP3 DUP6 ADD PUSH2 0x6FE JUMP JUMPDEST SWAP2 POP POP SWAP3 SWAP2 POP POP JUMP JUMPDEST PUSH0 DUP2 SWAP1 POP SWAP2 SWAP1 POP JUMP JUMPDEST PUSH2 0x74F DUP2 PUSH2 0x73D JUMP JUMPDEST DUP3 MSTORE POP POP JUMP JUMPDEST PUSH0 PUSH1 0x20 DUP3 ADD SWAP1 POP PUSH2 0x768 PUSH0 DUP4 ADD DUP5 PUSH2 0x746 JUMP JUMPDEST SWAP3 SWAP2 POP POP JUMP JUMPDEST PUSH2 0x777 DUP2 PUSH2 0x6D7 JUMP JUMPDEST DUP3 MSTORE POP POP JUMP JUMPDEST PUSH0 PUSH1 0x20 DUP3 ADD SWAP1 POP PUSH2 0x790 PUSH0 DUP4 ADD DUP5 PUSH2 0x76E JUMP JUMPDEST SWAP3 SWAP2 POP POP JUMP JUMPDEST PUSH2 0x79F DUP2 PUSH2 0x73D JUMP JUMPDEST DUP2 EQ PUSH2 0x7A9 JUMPI PUSH0 PUSH0 REVERT JUMPDEST POP JUMP JUMPDEST PUSH0 DUP2 CALLDATALOAD SWAP1 POP PUSH2 0x7BA DUP2 PUSH2 0x796 JUMP JUMPDEST SWAP3 SWAP2 POP POP JUMP JUMPDEST PUSH0 PUSH1 0x20 DUP3 DUP5 SUB SLT ISZERO PUSH2 0x7D5 JUMPI PUSH2 0x7D4 PUSH2 0x6B4 JUMP JUMPDEST JUMPDEST PUSH0 PUSH2 0x7E2 DUP5 DUP3 DUP6 ADD PUSH2 0x7AC JUMP JUMPDEST SWAP2 POP POP SWAP3 SWAP2 POP POP JUMP JUMPDEST PUSH0 DUP3 DUP3 MSTORE PUSH1 0x20 DUP3 ADD SWAP1 POP SWAP3 SWAP2 POP POP JUMP JUMPDEST PUSH32 0x6D757374206265206F776E657200000000000000000000000000000000000000 PUSH0 DUP3 ADD MSTORE POP JUMP JUMPDEST PUSH0 PUSH2 0x82F PUSH1 0xD DUP4 PUSH2 0x7EB JUMP JUMPDEST SWAP2 POP PUSH2 0x83A DUP3 PUSH2 0x7FB JUMP JUMPDEST PUSH1 0x20 DUP3 ADD SWAP1 POP SWAP2 SWAP1 POP JUMP JUMPDEST PUSH0 PUSH1 0x20 DUP3 ADD SWAP1 POP DUP2 DUP2 SUB PUSH0 DUP4 ADD MSTORE PUSH2 0x85C DUP2 PUSH2 0x823 JUMP JUMPDEST SWAP1 POP SWAP2 SWAP1 POP JUMP JUMPDEST PUSH32 0x4E487B7100000000000000000000000000000000000000000000000000000000 PUSH0 MSTORE PUSH1 0x32 PUSH1 0x4 MSTORE PUSH1 0x24 PUSH0 REVERT JUMPDEST PUSH32 0x4E487B7100000000000000000000000000000000000000000000000000000000 PUSH0 MSTORE PUSH1 0x41 PUSH1 0x4 MSTORE PUSH1 0x24 PUSH0 REVERT JUMPDEST PUSH0 DUP2 SWAP1 POP SWAP3 SWAP2 POP POP JUMP JUMPDEST POP JUMP JUMPDEST PUSH0 PUSH2 0x8D5 PUSH0 DUP4 PUSH2 0x8BD JUMP JUMPDEST SWAP2 POP PUSH2 0x8E0 DUP3 PUSH2 0x8C7 JUMP JUMPDEST PUSH0 DUP3 ADD SWAP1 POP SWAP2 SWAP1 POP JUMP JUMPDEST PUSH0 PUSH2 0x8F4 DUP3 PUSH2 0x8CA JUMP JUMPDEST SWAP2 POP DUP2 SWAP1 POP SWAP2 SWAP1 POP JUMP JUMPDEST PUSH32 0x7472616E73666572206661696C65640000000000000000000000000000000000 PUSH0 DUP3 ADD MSTORE POP JUMP JUMPDEST PUSH0 PUSH2 0x932 PUSH1 0xF DUP4 PUSH2 0x7EB JUMP JUMPDEST SWAP2 POP PUSH2 0x93D DUP3 PUSH2 0x8FE JUMP JUMPDEST PUSH1 0x20 DUP3 ADD SWAP1 POP SWAP2 SWAP1 POP JUMP JUMPDEST PUSH0 PUSH1 0x20 DUP3 ADD SWAP1 POP DUP2 DUP2 SUB PUSH0 DUP4 ADD MSTORE PUSH2 0x95F DUP2 PUSH2 0x926 JUMP JUMPDEST SWAP1 POP SWAP2 SWAP1 POP JUMP JUMPDEST PUSH32 0x646964206E6F742073656E6420656E6F75676820455448000000000000000000 PUSH0 DUP3 ADD MSTORE POP JUMP JUMPDEST PUSH0 PUSH2 0x99A PUSH1 0x17 DUP4 PUSH2 0x7EB JUMP JUMPDEST SWAP2 POP PUSH2 0x9A5 DUP3 PUSH2 0x966 JUMP JUMPDEST PUSH1 0x20 DUP3 ADD SWAP1 POP SWAP2 SWAP1 POP JUMP JUMPDEST PUSH0 PUSH1 0x20 DUP3 ADD SWAP1 POP DUP2 DUP2 SUB PUSH0 DUP4 ADD MSTORE PUSH2 0x9C7 DUP2 PUSH2 0x98E JUMP JUMPDEST SWAP1 POP SWAP2 SWAP1 POP JUMP JUMPDEST PUSH32 0x4E487B7100000000000000000000000000000000000000000000000000000000 PUSH0 MSTORE PUSH1 0x11 PUSH1 0x4 MSTORE PUSH1 0x24 PUSH0 REVERT JUMPDEST PUSH0 PUSH2 0xA05 DUP3 PUSH2 0x73D JUMP JUMPDEST SWAP2 POP PUSH2 0xA10 DUP4 PUSH2 0x73D JUMP JUMPDEST SWAP3 POP DUP3 DUP3 ADD SWAP1 POP DUP1 DUP3 GT ISZERO PUSH2 0xA28 JUMPI PUSH2 0xA27 PUSH2 0x9CE JUMP JUMPDEST JUMPDEST SWAP3 SWAP2 POP POP JUMP JUMPDEST PUSH0 PUSH2 0xA38 DUP3 PUSH2 0x73D JUMP JUMPDEST SWAP2 POP PUSH2 0xA43 DUP4 PUSH2 0x73D JUMP JUMPDEST SWAP3 POP DUP3 DUP3 MUL PUSH2 0xA51 DUP2 PUSH2 0x73D JUMP JUMPDEST SWAP2 POP DUP3 DUP3 DIV DUP5 EQ DUP4 ISZERO OR PUSH2 0xA68 JUMPI PUSH2 0xA67 PUSH2 0x9CE JUMP JUMPDEST JUMPDEST POP SWAP3 SWAP2 POP POP JUMP JUMPDEST PUSH32 0x4E487B7100000000000000000000000000000000000000000000000000000000 PUSH0 MSTORE PUSH1 0x12 PUSH1 0x4 MSTORE PUSH1 0x24 PUSH0 REVERT JUMPDEST PUSH0 PUSH2 0xAA6 DUP3 PUSH2 0x73D JUMP JUMPDEST SWAP2 POP PUSH2 0xAB1 DUP4 PUSH2 0x73D JUMP JUMPDEST SWAP3 POP DUP3 PUSH2 0xAC1 JUMPI PUSH2 0xAC0 PUSH2 0xA6F JUMP JUMPDEST JUMPDEST DUP3 DUP3 DIV SWAP1 POP SWAP3 SWAP2 POP POP JUMP JUMPDEST PUSH0 PUSH10 0xFFFFFFFFFFFFFFFFFFFF DUP3 AND SWAP1 POP SWAP2 SWAP1 POP JUMP JUMPDEST PUSH2 0xAEA DUP2 PUSH2 0xACC JUMP JUMPDEST DUP2 EQ PUSH2 0xAF4 JUMPI PUSH0 PUSH0 REVERT JUMPDEST POP JUMP JUMPDEST PUSH0 DUP2 MLOAD SWAP1 POP PUSH2 0xB05 DUP2 PUSH2 0xAE1 JUMP JUMPDEST SWAP3 SWAP2 POP POP JUMP JUMPDEST PUSH0 DUP2 SWAP1 POP SWAP2 SWAP1 POP JUMP JUMPDEST PUSH2 0xB1D DUP2 PUSH2 0xB0B JUMP JUMPDEST DUP2 EQ PUSH2 0xB27 JUMPI PUSH0 PUSH0 REVERT JUMPDEST POP JUMP JUMPDEST PUSH0 DUP2 MLOAD SWAP1 POP PUSH2 0xB38 DUP2 PUSH2 0xB14 JUMP JUMPDEST SWAP3 SWAP2 POP POP JUMP JUMPDEST PUSH0 DUP2 MLOAD SWAP1 POP PUSH2 0xB4C DUP2 PUSH2 0x796 JUMP JUMPDEST SWAP3 SWAP2 POP POP JUMP JUMPDEST PUSH0 PUSH0 PUSH0 PUSH0 PUSH0 PUSH1 0xA0 DUP7 DUP9 SUB SLT ISZERO PUSH2 0xB6B JUMPI PUSH2 0xB6A PUSH2 0x6B4 JUMP JUMPDEST JUMPDEST PUSH0 PUSH2 0xB78 DUP9 DUP3 DUP10 ADD PUSH2 0xAF7 JUMP JUMPDEST SWAP6 POP POP PUSH1 0x20 PUSH2 0xB89 DUP9 DUP3 DUP10 ADD PUSH2 0xB2A JUMP JUMPDEST SWAP5 POP POP PUSH1 0x40 PUSH2 0xB9A DUP9 DUP3 DUP10 ADD PUSH2 0xB3E JUMP JUMPDEST SWAP4 POP POP PUSH1 0x60 PUSH2 0xBAB DUP9 DUP3 DUP10 ADD PUSH2 0xB3E JUMP JUMPDEST SWAP3 POP POP PUSH1 0x80 PUSH2 0xBBC DUP9 DUP3 DUP10 ADD PUSH2 0xAF7 JUMP JUMPDEST SWAP2 POP POP SWAP3 SWAP6 POP SWAP3 SWAP6 SWAP1 SWAP4 POP JUMP INVALID LOG2 PUSH5 0x6970667358 0x22 SLT KECCAK256 EXTSTATICCALL SWAP16 DUP2 JUMPDEST PUSH31 0x330F487668CE920BF81F841083F563DA8EE40A12B509AF8B93EFA964736F6C PUSH4 0x4300081E STOP CALLER "
				},
				"gasEstimates": {
					"creation": {
						"codeDepositCost": "614200",
						"executionCost": "47013",
						"totalCost": "661213"
					},
					"external": {
						"addressToAmountFunded(address)": "2802",
						"fund()": "infinite",
						"funders(uint256)": "5032",
						"miniUSD()": "2446",
						"owner()": "2552",
						"withdraw()": "infinite"
					}
				},
				"methodIdentifiers": {
					"addressToAmountFunded(address)": "3e47d6f3",
					"fund()": "b60d4288",
					"funders(uint256)": "dc0d3dff",
					"miniUSD()": "73cef391",
					"owner()": "8da5cb5b",
					"withdraw()": "3ccfd60b"
				}
			},
			"storageLayout": {
				"storage": [
					{
						"astId": 55,
						"contract": "FundMe/FundMe.sol:FundMe",
						"label": "miniUSD",
						"offset": 0,
						"slot": "0",
						"type": "t_uint256"
					},
					{
						"astId": 58,
						"contract": "FundMe/FundMe.sol:FundMe",
						"label": "funders",
						"offset": 0,
						"slot": "1",
						"type": "t_array(t_address)dyn_storage"
					},
					{
						"astId": 62,
						"contract": "FundMe/FundMe.sol:FundMe",
						"label": "addressToAmountFunded",
						"offset": 0,
						"slot": "2",
						"type": "t_mapping(t_address,t_uint256)"
					},
					{
						"astId": 64,
						"contract": "FundMe/FundMe.sol:FundMe",
						"label": "owner",
						"offset": 0,
						"slot": "3",
						"type": "t_address"
					}
				],
				"types": {
					"t_address": {
						"encoding": "inplace",
						"label": "address",
						"numberOfBytes": "20"
					},
					"t_array(t_address)dyn_storage": {
						"base": "t_address",
						"encoding": "dynamic_array",
						"label": "address[]",
						"numberOfBytes": "32"
					},
					"t_mapping(t_address,t_uint256)": {
						"encoding": "mapping",
						"key": "t_address",
						"label": "mapping(address => uint256)",
						"numberOfBytes": "32",
						"value": "t_uint256"
					},
					"t_uint256": {
						"encoding": "inplace",
						"label": "uint256",
						"numberOfBytes": "32"
					}
				}
			},
			"userdoc": {
				"kind": "user",
				"methods": {},
				"version": 1
			}
		}
	}
}